{
	"contracts/CoblosIn.sol": {
		"CoblosIn": {
			"abi": [
				{
					"inputs": [],
					"stateMutability": "nonpayable",
					"type": "constructor"
				},
				{
					"inputs": [
						{
							"internalType": "uint256",
							"name": "",
							"type": "uint256"
						}
					],
					"name": "daftarKandidat",
					"outputs": [
						{
							"internalType": "uint256",
							"name": "id",
							"type": "uint256"
						},
						{
							"internalType": "string",
							"name": "nama",
							"type": "string"
						},
						{
							"internalType": "bytes32",
							"name": "hashProfil",
							"type": "bytes32"
						},
						{
							"internalType": "uint256",
							"name": "jumlahSuara",
							"type": "uint256"
						}
					],
					"stateMutability": "view",
					"type": "function"
				},
				{
					"inputs": [
						{
							"internalType": "address",
							"name": "",
							"type": "address"
						}
					],
					"name": "dataPemilih",
					"outputs": [
						{
							"internalType": "bool",
							"name": "isTerverifikasi",
							"type": "bool"
						},
						{
							"internalType": "bool",
							"name": "sudahMemilih",
							"type": "bool"
						},
						{
							"internalType": "bytes32",
							"name": "voteReceipt",
							"type": "bytes32"
						}
					],
					"stateMutability": "view",
					"type": "function"
				},
				{
					"inputs": [],
					"name": "faseSaatIni",
					"outputs": [
						{
							"internalType": "enum CoblosIn.FasePemilihan",
							"name": "",
							"type": "uint8"
						}
					],
					"stateMutability": "view",
					"type": "function"
				},
				{
					"inputs": [
						{
							"internalType": "enum CoblosIn.FasePemilihan",
							"name": "_faseBaru",
							"type": "uint8"
						}
					],
					"name": "gantiFase",
					"outputs": [],
					"stateMutability": "nonpayable",
					"type": "function"
				},
				{
					"inputs": [],
					"name": "getJumlahKandidat",
					"outputs": [
						{
							"internalType": "uint256",
							"name": "",
							"type": "uint256"
						}
					],
					"stateMutability": "view",
					"type": "function"
				},
				{
					"inputs": [],
					"name": "panitia",
					"outputs": [
						{
							"internalType": "address",
							"name": "",
							"type": "address"
						}
					],
					"stateMutability": "view",
					"type": "function"
				},
				{
					"inputs": [
						{
							"internalType": "uint256",
							"name": "_idKandidat",
							"type": "uint256"
						}
					],
					"name": "pilihKandidat",
					"outputs": [],
					"stateMutability": "nonpayable",
					"type": "function"
				},
				{
					"inputs": [
						{
							"internalType": "string",
							"name": "_nama",
							"type": "string"
						},
						{
							"internalType": "bytes32",
							"name": "_hashProfil",
							"type": "bytes32"
						}
					],
					"name": "tambahKandidat",
					"outputs": [],
					"stateMutability": "nonpayable",
					"type": "function"
				},
				{
					"inputs": [],
					"name": "totalSuara",
					"outputs": [
						{
							"internalType": "uint256",
							"name": "",
							"type": "uint256"
						}
					],
					"stateMutability": "view",
					"type": "function"
				},
				{
					"inputs": [
						{
							"internalType": "address",
							"name": "_pemilih",
							"type": "address"
						}
					],
					"name": "verifikasiPemilih",
					"outputs": [],
					"stateMutability": "nonpayable",
					"type": "function"
				}
			],
			"devdoc": {
				"kind": "dev",
				"methods": {},
				"version": 1
			},
			"evm": {
				"assembly": "    /* \"contracts/CoblosIn.sol\":60:2136  contract CoblosIn {... */\n  mstore(0x40, 0x80)\n    /* \"contracts/CoblosIn.sol\":727:873  constructor() {... */\n  callvalue\n  dup1\n  iszero\n  tag_1\n  jumpi\n  revert(0x00, 0x00)\ntag_1:\n  pop\n    /* \"contracts/CoblosIn.sol\":762:772  msg.sender */\n  caller\n    /* \"contracts/CoblosIn.sol\":752:759  panitia */\n  0x00\n  0x00\n    /* \"contracts/CoblosIn.sol\":752:772  panitia = msg.sender */\n  0x0100\n  exp\n  dup2\n  sload\n  dup2\n  0xffffffffffffffffffffffffffffffffffffffff\n  mul\n  not\n  and\n  swap1\n  dup4\n  0xffffffffffffffffffffffffffffffffffffffff\n  and\n  mul\n  or\n  swap1\n  sstore\n  pop\n    /* \"contracts/CoblosIn.sol\":846:865  FasePemilihan.SETUP */\n  0x00\n    /* \"contracts/CoblosIn.sol\":832:843  faseSaatIni */\n  0x00\n  0x14\n    /* \"contracts/CoblosIn.sol\":832:865  faseSaatIni = FasePemilihan.SETUP */\n  0x0100\n  exp\n  dup2\n  sload\n  dup2\n  0xff\n  mul\n  not\n  and\n  swap1\n  dup4\n  0x03\n  dup2\n  gt\n  iszero\n  tag_4\n  jumpi\n  tag_5\n  tag_6\n  jump\t// in\ntag_5:\ntag_4:\n  mul\n  or\n  swap1\n  sstore\n  pop\n    /* \"contracts/CoblosIn.sol\":60:2136  contract CoblosIn {... */\n  jump(tag_7)\n    /* \"#utility.yul\":7:187   */\ntag_6:\n    /* \"#utility.yul\":55:132   */\n  0x4e487b7100000000000000000000000000000000000000000000000000000000\n    /* \"#utility.yul\":52:53   */\n  0x00\n    /* \"#utility.yul\":45:133   */\n  mstore\n    /* \"#utility.yul\":152:156   */\n  0x21\n    /* \"#utility.yul\":149:150   */\n  0x04\n    /* \"#utility.yul\":142:157   */\n  mstore\n    /* \"#utility.yul\":176:180   */\n  0x24\n    /* \"#utility.yul\":173:174   */\n  0x00\n    /* \"#utility.yul\":166:181   */\n  revert\n    /* \"contracts/CoblosIn.sol\":60:2136  contract CoblosIn {... */\ntag_7:\n  dataSize(sub_0)\n  dup1\n  dataOffset(sub_0)\n  0x00\n  codecopy\n  0x00\n  return\nstop\n\nsub_0: assembly {\n        /* \"contracts/CoblosIn.sol\":60:2136  contract CoblosIn {... */\n      mstore(0x40, 0x80)\n      callvalue\n      dup1\n      iszero\n      tag_1\n      jumpi\n      revert(0x00, 0x00)\n    tag_1:\n      pop\n      jumpi(tag_2, lt(calldatasize, 0x04))\n      shr(0xe0, calldataload(0x00))\n      dup1\n      0x53ffdd28\n      gt\n      tag_13\n      jumpi\n      dup1\n      0x53ffdd28\n      eq\n      tag_8\n      jumpi\n      dup1\n      0x68a25911\n      eq\n      tag_9\n      jumpi\n      dup1\n      0x7a84a562\n      eq\n      tag_10\n      jumpi\n      dup1\n      0x7e36d296\n      eq\n      tag_11\n      jumpi\n      dup1\n      0x88871746\n      eq\n      tag_12\n      jumpi\n      jump(tag_2)\n    tag_13:\n      dup1\n      0x0fd569e8\n      eq\n      tag_3\n      jumpi\n      dup1\n      0x13d7966c\n      eq\n      tag_4\n      jumpi\n      dup1\n      0x393d7119\n      eq\n      tag_5\n      jumpi\n      dup1\n      0x406a4324\n      eq\n      tag_6\n      jumpi\n      dup1\n      0x4cd02954\n      eq\n      tag_7\n      jumpi\n    tag_2:\n      revert(0x00, 0x00)\n        /* \"contracts/CoblosIn.sol\":572:594  uint public totalSuara */\n    tag_3:\n      tag_14\n      tag_15\n      jump\t// in\n    tag_14:\n      mload(0x40)\n      tag_16\n      swap2\n      swap1\n      tag_17\n      jump\t// in\n    tag_16:\n      mload(0x40)\n      dup1\n      swap2\n      sub\n      swap1\n      return\n        /* \"contracts/CoblosIn.sol\":480:512  Kandidat[] public daftarKandidat */\n    tag_4:\n      tag_18\n      0x04\n      dup1\n      calldatasize\n      sub\n      dup2\n      add\n      swap1\n      tag_19\n      swap2\n      swap1\n      tag_20\n      jump\t// in\n    tag_19:\n      tag_21\n      jump\t// in\n    tag_18:\n      mload(0x40)\n      tag_22\n      swap5\n      swap4\n      swap3\n      swap2\n      swap1\n      tag_23\n      jump\t// in\n    tag_22:\n      mload(0x40)\n      dup1\n      swap2\n      sub\n      swap1\n      return\n        /* \"contracts/CoblosIn.sol\":1285:1390  function gantiFase(FasePemilihan _faseBaru) public onlyPanitia {... */\n    tag_5:\n      tag_24\n      0x04\n      dup1\n      calldatasize\n      sub\n      dup2\n      add\n      swap1\n      tag_25\n      swap2\n      swap1\n      tag_26\n      jump\t// in\n    tag_25:\n      tag_27\n      jump\t// in\n    tag_24:\n      stop\n        /* \"contracts/CoblosIn.sol\":1398:2022  function pilihKandidat(uint _idKandidat) public {... */\n    tag_6:\n      tag_28\n      0x04\n      dup1\n      calldatasize\n      sub\n      dup2\n      add\n      swap1\n      tag_29\n      swap2\n      swap1\n      tag_20\n      jump\t// in\n    tag_29:\n      tag_30\n      jump\t// in\n    tag_28:\n      stop\n        /* \"contracts/CoblosIn.sol\":519:565  mapping(address => Pemilih) public dataPemilih */\n    tag_7:\n      tag_31\n      0x04\n      dup1\n      calldatasize\n      sub\n      dup2\n      add\n      swap1\n      tag_32\n      swap2\n      swap1\n      tag_33\n      jump\t// in\n    tag_32:\n      tag_34\n      jump\t// in\n    tag_31:\n      mload(0x40)\n      tag_35\n      swap4\n      swap3\n      swap2\n      swap1\n      tag_36\n      jump\t// in\n    tag_35:\n      mload(0x40)\n      dup1\n      swap2\n      sub\n      swap1\n      return\n        /* \"contracts/CoblosIn.sol\":183:215  FasePemilihan public faseSaatIni */\n    tag_8:\n      tag_37\n      tag_38\n      jump\t// in\n    tag_37:\n      mload(0x40)\n      tag_39\n      swap2\n      swap1\n      tag_40\n      jump\t// in\n    tag_39:\n      mload(0x40)\n      dup1\n      swap2\n      sub\n      swap1\n      return\n        /* \"contracts/CoblosIn.sol\":1150:1277  function verifikasiPemilih(address _pemilih) public onlyPanitia {... */\n    tag_9:\n      tag_41\n      0x04\n      dup1\n      calldatasize\n      sub\n      dup2\n      add\n      swap1\n      tag_42\n      swap2\n      swap1\n      tag_33\n      jump\t// in\n    tag_42:\n      tag_43\n      jump\t// in\n    tag_41:\n      stop\n        /* \"contracts/CoblosIn.sol\":2030:2133  function getJumlahKandidat() public view returns (uint) {... */\n    tag_10:\n      tag_44\n      tag_45\n      jump\t// in\n    tag_44:\n      mload(0x40)\n      tag_46\n      swap2\n      swap1\n      tag_17\n      jump\t// in\n    tag_46:\n      mload(0x40)\n      dup1\n      swap2\n      sub\n      swap1\n      return\n        /* \"contracts/CoblosIn.sol\":85:107  address public panitia */\n    tag_11:\n      tag_47\n      tag_48\n      jump\t// in\n    tag_47:\n      mload(0x40)\n      tag_49\n      swap2\n      swap1\n      tag_50\n      jump\t// in\n    tag_49:\n      mload(0x40)\n      dup1\n      swap2\n      sub\n      swap1\n      return\n        /* \"contracts/CoblosIn.sol\":881:1142  function tambahKandidat(string memory _nama, bytes32 _hashProfil) public onlyPanitia {... */\n    tag_12:\n      tag_51\n      0x04\n      dup1\n      calldatasize\n      sub\n      dup2\n      add\n      swap1\n      tag_52\n      swap2\n      swap1\n      tag_53\n      jump\t// in\n    tag_52:\n      tag_54\n      jump\t// in\n    tag_51:\n      stop\n        /* \"contracts/CoblosIn.sol\":572:594  uint public totalSuara */\n    tag_15:\n      sload(0x03)\n      dup2\n      jump\t// out\n        /* \"contracts/CoblosIn.sol\":480:512  Kandidat[] public daftarKandidat */\n    tag_21:\n      0x01\n      dup2\n      dup2\n      sload\n      dup2\n      lt\n      tag_55\n      jumpi\n      0x00\n      dup1\n      revert\n    tag_55:\n      swap1\n      0x00\n      mstore\n      keccak256(0x00, 0x20)\n      swap1\n      0x04\n      mul\n      add\n      0x00\n      swap2\n      pop\n      swap1\n      pop\n      dup1\n      0x00\n      add\n      sload\n      swap1\n      dup1\n      0x01\n      add\n      dup1\n      sload\n      tag_57\n      swap1\n      tag_58\n      jump\t// in\n    tag_57:\n      dup1\n      0x1f\n      add\n      0x20\n      dup1\n      swap2\n      div\n      mul\n      0x20\n      add\n      mload(0x40)\n      swap1\n      dup2\n      add\n      0x40\n      mstore\n      dup1\n      swap3\n      swap2\n      swap1\n      dup2\n      dup2\n      mstore\n      0x20\n      add\n      dup3\n      dup1\n      sload\n      tag_59\n      swap1\n      tag_58\n      jump\t// in\n    tag_59:\n      dup1\n      iszero\n      tag_60\n      jumpi\n      dup1\n      0x1f\n      lt\n      tag_61\n      jumpi\n      0x0100\n      dup1\n      dup4\n      sload\n      div\n      mul\n      dup4\n      mstore\n      swap2\n      0x20\n      add\n      swap2\n      jump(tag_60)\n    tag_61:\n      dup3\n      add\n      swap2\n      swap1\n      0x00\n      mstore\n      keccak256(0x00, 0x20)\n      swap1\n    tag_62:\n      dup2\n      sload\n      dup2\n      mstore\n      swap1\n      0x01\n      add\n      swap1\n      0x20\n      add\n      dup1\n      dup4\n      gt\n      tag_62\n      jumpi\n      dup3\n      swap1\n      sub\n      0x1f\n      and\n      dup3\n      add\n      swap2\n    tag_60:\n      pop\n      pop\n      pop\n      pop\n      pop\n      swap1\n      dup1\n      0x02\n      add\n      sload\n      swap1\n      dup1\n      0x03\n      add\n      sload\n      swap1\n      pop\n      dup5\n      jump\t// out\n        /* \"contracts/CoblosIn.sol\":1285:1390  function gantiFase(FasePemilihan _faseBaru) public onlyPanitia {... */\n    tag_27:\n        /* \"contracts/CoblosIn.sol\":659:666  panitia */\n      0x00\n      0x00\n      swap1\n      sload\n      swap1\n      0x0100\n      exp\n      swap1\n      div\n      0xffffffffffffffffffffffffffffffffffffffff\n      and\n        /* \"contracts/CoblosIn.sol\":645:666  msg.sender == panitia */\n      0xffffffffffffffffffffffffffffffffffffffff\n      and\n        /* \"contracts/CoblosIn.sol\":645:655  msg.sender */\n      caller\n        /* \"contracts/CoblosIn.sol\":645:666  msg.sender == panitia */\n      0xffffffffffffffffffffffffffffffffffffffff\n      and\n      eq\n        /* \"contracts/CoblosIn.sol\":637:699  require(msg.sender == panitia, \"Hanya Panitia yang diizinkan\") */\n      tag_64\n      jumpi\n      mload(0x40)\n      0x08c379a000000000000000000000000000000000000000000000000000000000\n      dup2\n      mstore\n      0x04\n      add\n      tag_65\n      swap1\n      tag_66\n      jump\t// in\n    tag_65:\n      mload(0x40)\n      dup1\n      swap2\n      sub\n      swap1\n      revert\n    tag_64:\n        /* \"contracts/CoblosIn.sol\":1373:1382  _faseBaru */\n      dup1\n        /* \"contracts/CoblosIn.sol\":1359:1370  faseSaatIni */\n      0x00\n      0x14\n        /* \"contracts/CoblosIn.sol\":1359:1382  faseSaatIni = _faseBaru */\n      0x0100\n      exp\n      dup2\n      sload\n      dup2\n      0xff\n      mul\n      not\n      and\n      swap1\n      dup4\n      0x03\n      dup2\n      gt\n      iszero\n      tag_68\n      jumpi\n      tag_69\n      tag_70\n      jump\t// in\n    tag_69:\n    tag_68:\n      mul\n      or\n      swap1\n      sstore\n      pop\n        /* \"contracts/CoblosIn.sol\":1285:1390  function gantiFase(FasePemilihan _faseBaru) public onlyPanitia {... */\n      pop\n      jump\t// out\n        /* \"contracts/CoblosIn.sol\":1398:2022  function pilihKandidat(uint _idKandidat) public {... */\n    tag_30:\n        /* \"contracts/CoblosIn.sol\":1457:1480  Pemilih storage pemilih */\n      0x00\n        /* \"contracts/CoblosIn.sol\":1483:1494  dataPemilih */\n      0x02\n        /* \"contracts/CoblosIn.sol\":1483:1506  dataPemilih[msg.sender] */\n      0x00\n        /* \"contracts/CoblosIn.sol\":1495:1505  msg.sender */\n      caller\n        /* \"contracts/CoblosIn.sol\":1483:1506  dataPemilih[msg.sender] */\n      0xffffffffffffffffffffffffffffffffffffffff\n      and\n      0xffffffffffffffffffffffffffffffffffffffff\n      and\n      dup2\n      mstore\n      0x20\n      add\n      swap1\n      dup2\n      mstore\n      0x20\n      add\n      0x00\n      keccak256\n        /* \"contracts/CoblosIn.sol\":1457:1506  Pemilih storage pemilih = dataPemilih[msg.sender] */\n      swap1\n      pop\n        /* \"contracts/CoblosIn.sol\":1540:1560  FasePemilihan.VOTING */\n      0x02\n        /* \"contracts/CoblosIn.sol\":1525:1560  faseSaatIni == FasePemilihan.VOTING */\n      0x03\n      dup2\n      gt\n      iszero\n      tag_72\n      jumpi\n      tag_73\n      tag_70\n      jump\t// in\n    tag_73:\n    tag_72:\n        /* \"contracts/CoblosIn.sol\":1525:1536  faseSaatIni */\n      0x00\n      0x14\n      swap1\n      sload\n      swap1\n      0x0100\n      exp\n      swap1\n      div\n      0xff\n      and\n        /* \"contracts/CoblosIn.sol\":1525:1560  faseSaatIni == FasePemilihan.VOTING */\n      0x03\n      dup2\n      gt\n      iszero\n      tag_74\n      jumpi\n      tag_75\n      tag_70\n      jump\t// in\n    tag_75:\n    tag_74:\n      eq\n        /* \"contracts/CoblosIn.sol\":1517:1584  require(faseSaatIni == FasePemilihan.VOTING, \"Voting belum dibuka\") */\n      tag_76\n      jumpi\n      mload(0x40)\n      0x08c379a000000000000000000000000000000000000000000000000000000000\n      dup2\n      mstore\n      0x04\n      add\n      tag_77\n      swap1\n      tag_78\n      jump\t// in\n    tag_77:\n      mload(0x40)\n      dup1\n      swap2\n      sub\n      swap1\n      revert\n    tag_76:\n        /* \"contracts/CoblosIn.sol\":1603:1610  pemilih */\n      dup1\n        /* \"contracts/CoblosIn.sol\":1603:1626  pemilih.isTerverifikasi */\n      0x00\n      add\n      0x00\n      swap1\n      sload\n      swap1\n      0x0100\n      exp\n      swap1\n      div\n      0xff\n      and\n        /* \"contracts/CoblosIn.sol\":1595:1655  require(pemilih.isTerverifikasi, \"Anda tidak terverifikasi\") */\n      tag_79\n      jumpi\n      mload(0x40)\n      0x08c379a000000000000000000000000000000000000000000000000000000000\n      dup2\n      mstore\n      0x04\n      add\n      tag_80\n      swap1\n      tag_81\n      jump\t// in\n    tag_80:\n      mload(0x40)\n      dup1\n      swap2\n      sub\n      swap1\n      revert\n    tag_79:\n        /* \"contracts/CoblosIn.sol\":1675:1682  pemilih */\n      dup1\n        /* \"contracts/CoblosIn.sol\":1675:1695  pemilih.sudahMemilih */\n      0x00\n      add\n      0x01\n      swap1\n      sload\n      swap1\n      0x0100\n      exp\n      swap1\n      div\n      0xff\n      and\n        /* \"contracts/CoblosIn.sol\":1674:1695  !pemilih.sudahMemilih */\n      iszero\n        /* \"contracts/CoblosIn.sol\":1666:1718  require(!pemilih.sudahMemilih, \"Anda sudah memilih\") */\n      tag_82\n      jumpi\n      mload(0x40)\n      0x08c379a000000000000000000000000000000000000000000000000000000000\n      dup2\n      mstore\n      0x04\n      add\n      tag_83\n      swap1\n      tag_84\n      jump\t// in\n    tag_83:\n      mload(0x40)\n      dup1\n      swap2\n      sub\n      swap1\n      revert\n    tag_82:\n        /* \"contracts/CoblosIn.sol\":1751:1765  daftarKandidat */\n      0x01\n        /* \"contracts/CoblosIn.sol\":1751:1772  daftarKandidat.length */\n      dup1\n      sload\n      swap1\n      pop\n        /* \"contracts/CoblosIn.sol\":1737:1748  _idKandidat */\n      dup3\n        /* \"contracts/CoblosIn.sol\":1737:1772  _idKandidat < daftarKandidat.length */\n      lt\n        /* \"contracts/CoblosIn.sol\":1729:1797  require(_idKandidat < daftarKandidat.length, \"Kandidat tidak valid\") */\n      tag_85\n      jumpi\n      mload(0x40)\n      0x08c379a000000000000000000000000000000000000000000000000000000000\n      dup2\n      mstore\n      0x04\n      add\n      tag_86\n      swap1\n      tag_87\n      jump\t// in\n    tag_86:\n      mload(0x40)\n      dup1\n      swap2\n      sub\n      swap1\n      revert\n    tag_85:\n        /* \"contracts/CoblosIn.sol\":1833:1837  true */\n      0x01\n        /* \"contracts/CoblosIn.sol\":1810:1817  pemilih */\n      dup2\n        /* \"contracts/CoblosIn.sol\":1810:1830  pemilih.sudahMemilih */\n      0x00\n      add\n      0x01\n        /* \"contracts/CoblosIn.sol\":1810:1837  pemilih.sudahMemilih = true */\n      0x0100\n      exp\n      dup2\n      sload\n      dup2\n      0xff\n      mul\n      not\n      and\n      swap1\n      dup4\n      iszero\n      iszero\n      mul\n      or\n      swap1\n      sstore\n      pop\n        /* \"contracts/CoblosIn.sol\":1897:1907  msg.sender */\n      caller\n        /* \"contracts/CoblosIn.sol\":1909:1920  _idKandidat */\n      dup3\n        /* \"contracts/CoblosIn.sol\":1922:1937  block.timestamp */\n      timestamp\n        /* \"contracts/CoblosIn.sol\":1880:1938  abi.encodePacked(msg.sender, _idKandidat, block.timestamp) */\n      add(0x20, mload(0x40))\n      tag_88\n      swap4\n      swap3\n      swap2\n      swap1\n      tag_89\n      jump\t// in\n    tag_88:\n      mload(0x40)\n      0x20\n      dup2\n      dup4\n      sub\n      sub\n      dup2\n      mstore\n      swap1\n      0x40\n      mstore\n        /* \"contracts/CoblosIn.sol\":1870:1939  keccak256(abi.encodePacked(msg.sender, _idKandidat, block.timestamp)) */\n      dup1\n      mload\n      swap1\n      0x20\n      add\n      keccak256\n        /* \"contracts/CoblosIn.sol\":1848:1855  pemilih */\n      dup2\n        /* \"contracts/CoblosIn.sol\":1848:1867  pemilih.voteReceipt */\n      0x01\n      add\n        /* \"contracts/CoblosIn.sol\":1848:1939  pemilih.voteReceipt = keccak256(abi.encodePacked(msg.sender, _idKandidat, block.timestamp)) */\n      dup2\n      swap1\n      sstore\n      pop\n        /* \"contracts/CoblosIn.sol\":1950:1964  daftarKandidat */\n      0x01\n        /* \"contracts/CoblosIn.sol\":1965:1976  _idKandidat */\n      dup3\n        /* \"contracts/CoblosIn.sol\":1950:1977  daftarKandidat[_idKandidat] */\n      dup2\n      sload\n      dup2\n      lt\n      tag_90\n      jumpi\n      tag_91\n      tag_92\n      jump\t// in\n    tag_91:\n    tag_90:\n      swap1\n      0x00\n      mstore\n      keccak256(0x00, 0x20)\n      swap1\n      0x04\n      mul\n      add\n        /* \"contracts/CoblosIn.sol\":1950:1989  daftarKandidat[_idKandidat].jumlahSuara */\n      0x03\n      add\n      0x00\n        /* \"contracts/CoblosIn.sol\":1950:1991  daftarKandidat[_idKandidat].jumlahSuara++ */\n      dup2\n      sload\n      dup1\n      swap3\n      swap2\n      swap1\n      tag_94\n      swap1\n      tag_95\n      jump\t// in\n    tag_94:\n      swap2\n      swap1\n      pop\n      sstore\n      pop\n        /* \"contracts/CoblosIn.sol\":2002:2012  totalSuara */\n      0x03\n      0x00\n        /* \"contracts/CoblosIn.sol\":2002:2014  totalSuara++ */\n      dup2\n      sload\n      dup1\n      swap3\n      swap2\n      swap1\n      tag_96\n      swap1\n      tag_95\n      jump\t// in\n    tag_96:\n      swap2\n      swap1\n      pop\n      sstore\n      pop\n        /* \"contracts/CoblosIn.sol\":1446:2022  {... */\n      pop\n        /* \"contracts/CoblosIn.sol\":1398:2022  function pilihKandidat(uint _idKandidat) public {... */\n      pop\n      jump\t// out\n        /* \"contracts/CoblosIn.sol\":519:565  mapping(address => Pemilih) public dataPemilih */\n    tag_34:\n      mstore(0x20, 0x02)\n      dup1\n      0x00\n      mstore\n      keccak256(0x00, 0x40)\n      0x00\n      swap2\n      pop\n      swap1\n      pop\n      dup1\n      0x00\n      add\n      0x00\n      swap1\n      sload\n      swap1\n      0x0100\n      exp\n      swap1\n      div\n      0xff\n      and\n      swap1\n      dup1\n      0x00\n      add\n      0x01\n      swap1\n      sload\n      swap1\n      0x0100\n      exp\n      swap1\n      div\n      0xff\n      and\n      swap1\n      dup1\n      0x01\n      add\n      sload\n      swap1\n      pop\n      dup4\n      jump\t// out\n        /* \"contracts/CoblosIn.sol\":183:215  FasePemilihan public faseSaatIni */\n    tag_38:\n      0x00\n      0x14\n      swap1\n      sload\n      swap1\n      0x0100\n      exp\n      swap1\n      div\n      0xff\n      and\n      dup2\n      jump\t// out\n        /* \"contracts/CoblosIn.sol\":1150:1277  function verifikasiPemilih(address _pemilih) public onlyPanitia {... */\n    tag_43:\n        /* \"contracts/CoblosIn.sol\":659:666  panitia */\n      0x00\n      0x00\n      swap1\n      sload\n      swap1\n      0x0100\n      exp\n      swap1\n      div\n      0xffffffffffffffffffffffffffffffffffffffff\n      and\n        /* \"contracts/CoblosIn.sol\":645:666  msg.sender == panitia */\n      0xffffffffffffffffffffffffffffffffffffffff\n      and\n        /* \"contracts/CoblosIn.sol\":645:655  msg.sender */\n      caller\n        /* \"contracts/CoblosIn.sol\":645:666  msg.sender == panitia */\n      0xffffffffffffffffffffffffffffffffffffffff\n      and\n      eq\n        /* \"contracts/CoblosIn.sol\":637:699  require(msg.sender == panitia, \"Hanya Panitia yang diizinkan\") */\n      tag_98\n      jumpi\n      mload(0x40)\n      0x08c379a000000000000000000000000000000000000000000000000000000000\n      dup2\n      mstore\n      0x04\n      add\n      tag_99\n      swap1\n      tag_66\n      jump\t// in\n    tag_99:\n      mload(0x40)\n      dup1\n      swap2\n      sub\n      swap1\n      revert\n    tag_98:\n        /* \"contracts/CoblosIn.sol\":1265:1269  true */\n      0x01\n        /* \"contracts/CoblosIn.sol\":1225:1236  dataPemilih */\n      0x02\n        /* \"contracts/CoblosIn.sol\":1225:1246  dataPemilih[_pemilih] */\n      0x00\n        /* \"contracts/CoblosIn.sol\":1237:1245  _pemilih */\n      dup4\n        /* \"contracts/CoblosIn.sol\":1225:1246  dataPemilih[_pemilih] */\n      0xffffffffffffffffffffffffffffffffffffffff\n      and\n      0xffffffffffffffffffffffffffffffffffffffff\n      and\n      dup2\n      mstore\n      0x20\n      add\n      swap1\n      dup2\n      mstore\n      0x20\n      add\n      0x00\n      keccak256\n        /* \"contracts/CoblosIn.sol\":1225:1262  dataPemilih[_pemilih].isTerverifikasi */\n      0x00\n      add\n      0x00\n        /* \"contracts/CoblosIn.sol\":1225:1269  dataPemilih[_pemilih].isTerverifikasi = true */\n      0x0100\n      exp\n      dup2\n      sload\n      dup2\n      0xff\n      mul\n      not\n      and\n      swap1\n      dup4\n      iszero\n      iszero\n      mul\n      or\n      swap1\n      sstore\n      pop\n        /* \"contracts/CoblosIn.sol\":1150:1277  function verifikasiPemilih(address _pemilih) public onlyPanitia {... */\n      pop\n      jump\t// out\n        /* \"contracts/CoblosIn.sol\":2030:2133  function getJumlahKandidat() public view returns (uint) {... */\n    tag_45:\n        /* \"contracts/CoblosIn.sol\":2080:2084  uint */\n      0x00\n        /* \"contracts/CoblosIn.sol\":2104:2118  daftarKandidat */\n      0x01\n        /* \"contracts/CoblosIn.sol\":2104:2125  daftarKandidat.length */\n      dup1\n      sload\n      swap1\n      pop\n        /* \"contracts/CoblosIn.sol\":2097:2125  return daftarKandidat.length */\n      swap1\n      pop\n        /* \"contracts/CoblosIn.sol\":2030:2133  function getJumlahKandidat() public view returns (uint) {... */\n      swap1\n      jump\t// out\n        /* \"contracts/CoblosIn.sol\":85:107  address public panitia */\n    tag_48:\n      0x00\n      0x00\n      swap1\n      sload\n      swap1\n      0x0100\n      exp\n      swap1\n      div\n      0xffffffffffffffffffffffffffffffffffffffff\n      and\n      dup2\n      jump\t// out\n        /* \"contracts/CoblosIn.sol\":881:1142  function tambahKandidat(string memory _nama, bytes32 _hashProfil) public onlyPanitia {... */\n    tag_54:\n        /* \"contracts/CoblosIn.sol\":659:666  panitia */\n      0x00\n      0x00\n      swap1\n      sload\n      swap1\n      0x0100\n      exp\n      swap1\n      div\n      0xffffffffffffffffffffffffffffffffffffffff\n      and\n        /* \"contracts/CoblosIn.sol\":645:666  msg.sender == panitia */\n      0xffffffffffffffffffffffffffffffffffffffff\n      and\n        /* \"contracts/CoblosIn.sol\":645:655  msg.sender */\n      caller\n        /* \"contracts/CoblosIn.sol\":645:666  msg.sender == panitia */\n      0xffffffffffffffffffffffffffffffffffffffff\n      and\n      eq\n        /* \"contracts/CoblosIn.sol\":637:699  require(msg.sender == panitia, \"Hanya Panitia yang diizinkan\") */\n      tag_103\n      jumpi\n      mload(0x40)\n      0x08c379a000000000000000000000000000000000000000000000000000000000\n      dup2\n      mstore\n      0x04\n      add\n      tag_104\n      swap1\n      tag_66\n      jump\t// in\n    tag_104:\n      mload(0x40)\n      dup1\n      swap2\n      sub\n      swap1\n      revert\n    tag_103:\n        /* \"contracts/CoblosIn.sol\":1000:1019  FasePemilihan.SETUP */\n      0x00\n        /* \"contracts/CoblosIn.sol\":985:1019  faseSaatIni == FasePemilihan.SETUP */\n      0x03\n      dup2\n      gt\n      iszero\n      tag_106\n      jumpi\n      tag_107\n      tag_70\n      jump\t// in\n    tag_107:\n    tag_106:\n        /* \"contracts/CoblosIn.sol\":985:996  faseSaatIni */\n      0x00\n      0x14\n      swap1\n      sload\n      swap1\n      0x0100\n      exp\n      swap1\n      div\n      0xff\n      and\n        /* \"contracts/CoblosIn.sol\":985:1019  faseSaatIni == FasePemilihan.SETUP */\n      0x03\n      dup2\n      gt\n      iszero\n      tag_108\n      jumpi\n      tag_109\n      tag_70\n      jump\t// in\n    tag_109:\n    tag_108:\n      eq\n        /* \"contracts/CoblosIn.sol\":977:1048  require(faseSaatIni == FasePemilihan.SETUP, \"Hanya bisa di fase SETUP\") */\n      tag_110\n      jumpi\n      mload(0x40)\n      0x08c379a000000000000000000000000000000000000000000000000000000000\n      dup2\n      mstore\n      0x04\n      add\n      tag_111\n      swap1\n      tag_112\n      jump\t// in\n    tag_111:\n      mload(0x40)\n      dup1\n      swap2\n      sub\n      swap1\n      revert\n    tag_110:\n        /* \"contracts/CoblosIn.sol\":1059:1073  daftarKandidat */\n      0x01\n        /* \"contracts/CoblosIn.sol\":1079:1133  Kandidat(daftarKandidat.length, _nama, _hashProfil, 0) */\n      mload(0x40)\n      dup1\n      0x80\n      add\n      0x40\n      mstore\n      dup1\n        /* \"contracts/CoblosIn.sol\":1088:1102  daftarKandidat */\n      0x01\n        /* \"contracts/CoblosIn.sol\":1088:1109  daftarKandidat.length */\n      dup1\n      sload\n      swap1\n      pop\n        /* \"contracts/CoblosIn.sol\":1079:1133  Kandidat(daftarKandidat.length, _nama, _hashProfil, 0) */\n      dup2\n      mstore\n      0x20\n      add\n        /* \"contracts/CoblosIn.sol\":1111:1116  _nama */\n      dup5\n        /* \"contracts/CoblosIn.sol\":1079:1133  Kandidat(daftarKandidat.length, _nama, _hashProfil, 0) */\n      dup2\n      mstore\n      0x20\n      add\n        /* \"contracts/CoblosIn.sol\":1118:1129  _hashProfil */\n      dup4\n        /* \"contracts/CoblosIn.sol\":1079:1133  Kandidat(daftarKandidat.length, _nama, _hashProfil, 0) */\n      dup2\n      mstore\n      0x20\n      add\n        /* \"contracts/CoblosIn.sol\":1131:1132  0 */\n      0x00\n        /* \"contracts/CoblosIn.sol\":1079:1133  Kandidat(daftarKandidat.length, _nama, _hashProfil, 0) */\n      dup2\n      mstore\n      pop\n        /* \"contracts/CoblosIn.sol\":1059:1134  daftarKandidat.push(Kandidat(daftarKandidat.length, _nama, _hashProfil, 0)) */\n      swap1\n      dup1\n      0x01\n      dup2\n      sload\n      add\n      dup1\n      dup3\n      sstore\n      dup1\n      swap2\n      pop\n      pop\n      0x01\n      swap1\n      sub\n      swap1\n      0x00\n      mstore\n      keccak256(0x00, 0x20)\n      swap1\n      0x04\n      mul\n      add\n      0x00\n      swap1\n      swap2\n      swap1\n      swap2\n      swap1\n      swap2\n      pop\n      0x00\n      dup3\n      add\n      mload\n      dup2\n      0x00\n      add\n      sstore\n      0x20\n      dup3\n      add\n      mload\n      dup2\n      0x01\n      add\n      swap1\n      dup2\n      tag_114\n      swap2\n      swap1\n      tag_115\n      jump\t// in\n    tag_114:\n      pop\n      0x40\n      dup3\n      add\n      mload\n      dup2\n      0x02\n      add\n      sstore\n      0x60\n      dup3\n      add\n      mload\n      dup2\n      0x03\n      add\n      sstore\n      pop\n      pop\n        /* \"contracts/CoblosIn.sol\":881:1142  function tambahKandidat(string memory _nama, bytes32 _hashProfil) public onlyPanitia {... */\n      pop\n      pop\n      jump\t// out\n        /* \"#utility.yul\":7:84   */\n    tag_116:\n        /* \"#utility.yul\":44:51   */\n      0x00\n        /* \"#utility.yul\":73:78   */\n      dup2\n        /* \"#utility.yul\":62:78   */\n      swap1\n      pop\n        /* \"#utility.yul\":7:84   */\n      swap2\n      swap1\n      pop\n      jump\t// out\n        /* \"#utility.yul\":90:208   */\n    tag_117:\n        /* \"#utility.yul\":177:201   */\n      tag_192\n        /* \"#utility.yul\":195:200   */\n      dup2\n        /* \"#utility.yul\":177:201   */\n      tag_116\n      jump\t// in\n    tag_192:\n        /* \"#utility.yul\":172:175   */\n      dup3\n        /* \"#utility.yul\":165:202   */\n      mstore\n        /* \"#utility.yul\":90:208   */\n      pop\n      pop\n      jump\t// out\n        /* \"#utility.yul\":214:436   */\n    tag_17:\n        /* \"#utility.yul\":307:311   */\n      0x00\n        /* \"#utility.yul\":345:347   */\n      0x20\n        /* \"#utility.yul\":334:343   */\n      dup3\n        /* \"#utility.yul\":330:348   */\n      add\n        /* \"#utility.yul\":322:348   */\n      swap1\n      pop\n        /* \"#utility.yul\":358:429   */\n      tag_194\n        /* \"#utility.yul\":426:427   */\n      0x00\n        /* \"#utility.yul\":415:424   */\n      dup4\n        /* \"#utility.yul\":411:428   */\n      add\n        /* \"#utility.yul\":402:408   */\n      dup5\n        /* \"#utility.yul\":358:429   */\n      tag_117\n      jump\t// in\n    tag_194:\n        /* \"#utility.yul\":214:436   */\n      swap3\n      swap2\n      pop\n      pop\n      jump\t// out\n        /* \"#utility.yul\":442:517   */\n    tag_118:\n        /* \"#utility.yul\":475:481   */\n      0x00\n        /* \"#utility.yul\":508:510   */\n      0x40\n        /* \"#utility.yul\":502:511   */\n      mload\n        /* \"#utility.yul\":492:511   */\n      swap1\n      pop\n        /* \"#utility.yul\":442:517   */\n      swap1\n      jump\t// out\n        /* \"#utility.yul\":523:640   */\n    tag_119:\n        /* \"#utility.yul\":632:633   */\n      0x00\n        /* \"#utility.yul\":629:630   */\n      0x00\n        /* \"#utility.yul\":622:634   */\n      revert\n        /* \"#utility.yul\":646:763   */\n    tag_120:\n        /* \"#utility.yul\":755:756   */\n      0x00\n        /* \"#utility.yul\":752:753   */\n      0x00\n        /* \"#utility.yul\":745:757   */\n      revert\n        /* \"#utility.yul\":769:891   */\n    tag_121:\n        /* \"#utility.yul\":842:866   */\n      tag_199\n        /* \"#utility.yul\":860:865   */\n      dup2\n        /* \"#utility.yul\":842:866   */\n      tag_116\n      jump\t// in\n    tag_199:\n        /* \"#utility.yul\":835:840   */\n      dup2\n        /* \"#utility.yul\":832:867   */\n      eq\n        /* \"#utility.yul\":822:885   */\n      tag_200\n      jumpi\n        /* \"#utility.yul\":881:882   */\n      0x00\n        /* \"#utility.yul\":878:879   */\n      0x00\n        /* \"#utility.yul\":871:883   */\n      revert\n        /* \"#utility.yul\":822:885   */\n    tag_200:\n        /* \"#utility.yul\":769:891   */\n      pop\n      jump\t// out\n        /* \"#utility.yul\":897:1036   */\n    tag_122:\n        /* \"#utility.yul\":943:948   */\n      0x00\n        /* \"#utility.yul\":981:987   */\n      dup2\n        /* \"#utility.yul\":968:988   */\n      calldataload\n        /* \"#utility.yul\":959:988   */\n      swap1\n      pop\n        /* \"#utility.yul\":997:1030   */\n      tag_202\n        /* \"#utility.yul\":1024:1029   */\n      dup2\n        /* \"#utility.yul\":997:1030   */\n      tag_121\n      jump\t// in\n    tag_202:\n        /* \"#utility.yul\":897:1036   */\n      swap3\n      swap2\n      pop\n      pop\n      jump\t// out\n        /* \"#utility.yul\":1042:1371   */\n    tag_20:\n        /* \"#utility.yul\":1101:1107   */\n      0x00\n        /* \"#utility.yul\":1150:1152   */\n      0x20\n        /* \"#utility.yul\":1138:1147   */\n      dup3\n        /* \"#utility.yul\":1129:1136   */\n      dup5\n        /* \"#utility.yul\":1125:1148   */\n      sub\n        /* \"#utility.yul\":1121:1153   */\n      slt\n        /* \"#utility.yul\":1118:1237   */\n      iszero\n      tag_204\n      jumpi\n        /* \"#utility.yul\":1156:1235   */\n      tag_205\n      tag_119\n      jump\t// in\n    tag_205:\n        /* \"#utility.yul\":1118:1237   */\n    tag_204:\n        /* \"#utility.yul\":1276:1277   */\n      0x00\n        /* \"#utility.yul\":1301:1354   */\n      tag_206\n        /* \"#utility.yul\":1346:1353   */\n      dup5\n        /* \"#utility.yul\":1337:1343   */\n      dup3\n        /* \"#utility.yul\":1326:1335   */\n      dup6\n        /* \"#utility.yul\":1322:1344   */\n      add\n        /* \"#utility.yul\":1301:1354   */\n      tag_122\n      jump\t// in\n    tag_206:\n        /* \"#utility.yul\":1291:1354   */\n      swap2\n      pop\n        /* \"#utility.yul\":1247:1364   */\n      pop\n        /* \"#utility.yul\":1042:1371   */\n      swap3\n      swap2\n      pop\n      pop\n      jump\t// out\n        /* \"#utility.yul\":1377:1476   */\n    tag_123:\n        /* \"#utility.yul\":1429:1435   */\n      0x00\n        /* \"#utility.yul\":1463:1468   */\n      dup2\n        /* \"#utility.yul\":1457:1469   */\n      mload\n        /* \"#utility.yul\":1447:1469   */\n      swap1\n      pop\n        /* \"#utility.yul\":1377:1476   */\n      swap2\n      swap1\n      pop\n      jump\t// out\n        /* \"#utility.yul\":1482:1651   */\n    tag_124:\n        /* \"#utility.yul\":1566:1577   */\n      0x00\n        /* \"#utility.yul\":1600:1606   */\n      dup3\n        /* \"#utility.yul\":1595:1598   */\n      dup3\n        /* \"#utility.yul\":1588:1607   */\n      mstore\n        /* \"#utility.yul\":1640:1644   */\n      0x20\n        /* \"#utility.yul\":1635:1638   */\n      dup3\n        /* \"#utility.yul\":1631:1645   */\n      add\n        /* \"#utility.yul\":1616:1645   */\n      swap1\n      pop\n        /* \"#utility.yul\":1482:1651   */\n      swap3\n      swap2\n      pop\n      pop\n      jump\t// out\n        /* \"#utility.yul\":1657:1796   */\n    tag_125:\n        /* \"#utility.yul\":1746:1752   */\n      dup3\n        /* \"#utility.yul\":1741:1744   */\n      dup2\n        /* \"#utility.yul\":1736:1739   */\n      dup4\n        /* \"#utility.yul\":1730:1753   */\n      mcopy\n        /* \"#utility.yul\":1787:1788   */\n      0x00\n        /* \"#utility.yul\":1778:1784   */\n      dup4\n        /* \"#utility.yul\":1773:1776   */\n      dup4\n        /* \"#utility.yul\":1769:1785   */\n      add\n        /* \"#utility.yul\":1762:1789   */\n      mstore\n        /* \"#utility.yul\":1657:1796   */\n      pop\n      pop\n      pop\n      jump\t// out\n        /* \"#utility.yul\":1802:1904   */\n    tag_126:\n        /* \"#utility.yul\":1843:1849   */\n      0x00\n        /* \"#utility.yul\":1894:1896   */\n      0x1f\n        /* \"#utility.yul\":1890:1897   */\n      not\n        /* \"#utility.yul\":1885:1887   */\n      0x1f\n        /* \"#utility.yul\":1878:1883   */\n      dup4\n        /* \"#utility.yul\":1874:1888   */\n      add\n        /* \"#utility.yul\":1870:1898   */\n      and\n        /* \"#utility.yul\":1860:1898   */\n      swap1\n      pop\n        /* \"#utility.yul\":1802:1904   */\n      swap2\n      swap1\n      pop\n      jump\t// out\n        /* \"#utility.yul\":1910:2287   */\n    tag_127:\n        /* \"#utility.yul\":1998:2001   */\n      0x00\n        /* \"#utility.yul\":2026:2065   */\n      tag_212\n        /* \"#utility.yul\":2059:2064   */\n      dup3\n        /* \"#utility.yul\":2026:2065   */\n      tag_123\n      jump\t// in\n    tag_212:\n        /* \"#utility.yul\":2081:2152   */\n      tag_213\n        /* \"#utility.yul\":2145:2151   */\n      dup2\n        /* \"#utility.yul\":2140:2143   */\n      dup6\n        /* \"#utility.yul\":2081:2152   */\n      tag_124\n      jump\t// in\n    tag_213:\n        /* \"#utility.yul\":2074:2152   */\n      swap4\n      pop\n        /* \"#utility.yul\":2161:2226   */\n      tag_214\n        /* \"#utility.yul\":2219:2225   */\n      dup2\n        /* \"#utility.yul\":2214:2217   */\n      dup6\n        /* \"#utility.yul\":2207:2211   */\n      0x20\n        /* \"#utility.yul\":2200:2205   */\n      dup7\n        /* \"#utility.yul\":2196:2212   */\n      add\n        /* \"#utility.yul\":2161:2226   */\n      tag_125\n      jump\t// in\n    tag_214:\n        /* \"#utility.yul\":2251:2280   */\n      tag_215\n        /* \"#utility.yul\":2273:2279   */\n      dup2\n        /* \"#utility.yul\":2251:2280   */\n      tag_126\n      jump\t// in\n    tag_215:\n        /* \"#utility.yul\":2246:2249   */\n      dup5\n        /* \"#utility.yul\":2242:2281   */\n      add\n        /* \"#utility.yul\":2235:2281   */\n      swap2\n      pop\n        /* \"#utility.yul\":2002:2287   */\n      pop\n        /* \"#utility.yul\":1910:2287   */\n      swap3\n      swap2\n      pop\n      pop\n      jump\t// out\n        /* \"#utility.yul\":2293:2370   */\n    tag_128:\n        /* \"#utility.yul\":2330:2337   */\n      0x00\n        /* \"#utility.yul\":2359:2364   */\n      dup2\n        /* \"#utility.yul\":2348:2364   */\n      swap1\n      pop\n        /* \"#utility.yul\":2293:2370   */\n      swap2\n      swap1\n      pop\n      jump\t// out\n        /* \"#utility.yul\":2376:2494   */\n    tag_129:\n        /* \"#utility.yul\":2463:2487   */\n      tag_218\n        /* \"#utility.yul\":2481:2486   */\n      dup2\n        /* \"#utility.yul\":2463:2487   */\n      tag_128\n      jump\t// in\n    tag_218:\n        /* \"#utility.yul\":2458:2461   */\n      dup3\n        /* \"#utility.yul\":2451:2488   */\n      mstore\n        /* \"#utility.yul\":2376:2494   */\n      pop\n      pop\n      jump\t// out\n        /* \"#utility.yul\":2500:3144   */\n    tag_23:\n        /* \"#utility.yul\":2697:2701   */\n      0x00\n        /* \"#utility.yul\":2735:2738   */\n      0x80\n        /* \"#utility.yul\":2724:2733   */\n      dup3\n        /* \"#utility.yul\":2720:2739   */\n      add\n        /* \"#utility.yul\":2712:2739   */\n      swap1\n      pop\n        /* \"#utility.yul\":2749:2820   */\n      tag_220\n        /* \"#utility.yul\":2817:2818   */\n      0x00\n        /* \"#utility.yul\":2806:2815   */\n      dup4\n        /* \"#utility.yul\":2802:2819   */\n      add\n        /* \"#utility.yul\":2793:2799   */\n      dup8\n        /* \"#utility.yul\":2749:2820   */\n      tag_117\n      jump\t// in\n    tag_220:\n        /* \"#utility.yul\":2867:2876   */\n      dup2\n        /* \"#utility.yul\":2861:2865   */\n      dup2\n        /* \"#utility.yul\":2857:2877   */\n      sub\n        /* \"#utility.yul\":2852:2854   */\n      0x20\n        /* \"#utility.yul\":2841:2850   */\n      dup4\n        /* \"#utility.yul\":2837:2855   */\n      add\n        /* \"#utility.yul\":2830:2878   */\n      mstore\n        /* \"#utility.yul\":2895:2973   */\n      tag_221\n        /* \"#utility.yul\":2968:2972   */\n      dup2\n        /* \"#utility.yul\":2959:2965   */\n      dup7\n        /* \"#utility.yul\":2895:2973   */\n      tag_127\n      jump\t// in\n    tag_221:\n        /* \"#utility.yul\":2887:2973   */\n      swap1\n      pop\n        /* \"#utility.yul\":2983:3055   */\n      tag_222\n        /* \"#utility.yul\":3051:3053   */\n      0x40\n        /* \"#utility.yul\":3040:3049   */\n      dup4\n        /* \"#utility.yul\":3036:3054   */\n      add\n        /* \"#utility.yul\":3027:3033   */\n      dup6\n        /* \"#utility.yul\":2983:3055   */\n      tag_129\n      jump\t// in\n    tag_222:\n        /* \"#utility.yul\":3065:3137   */\n      tag_223\n        /* \"#utility.yul\":3133:3135   */\n      0x60\n        /* \"#utility.yul\":3122:3131   */\n      dup4\n        /* \"#utility.yul\":3118:3136   */\n      add\n        /* \"#utility.yul\":3109:3115   */\n      dup5\n        /* \"#utility.yul\":3065:3137   */\n      tag_117\n      jump\t// in\n    tag_223:\n        /* \"#utility.yul\":2500:3144   */\n      swap6\n      swap5\n      pop\n      pop\n      pop\n      pop\n      pop\n      jump\t// out\n        /* \"#utility.yul\":3150:3264   */\n    tag_130:\n        /* \"#utility.yul\":3238:3239   */\n      0x04\n        /* \"#utility.yul\":3231:3236   */\n      dup2\n        /* \"#utility.yul\":3228:3240   */\n      lt\n        /* \"#utility.yul\":3218:3258   */\n      tag_225\n      jumpi\n        /* \"#utility.yul\":3254:3255   */\n      0x00\n        /* \"#utility.yul\":3251:3252   */\n      0x00\n        /* \"#utility.yul\":3244:3256   */\n      revert\n        /* \"#utility.yul\":3218:3258   */\n    tag_225:\n        /* \"#utility.yul\":3150:3264   */\n      pop\n      jump\t// out\n        /* \"#utility.yul\":3270:3439   */\n    tag_131:\n        /* \"#utility.yul\":3331:3336   */\n      0x00\n        /* \"#utility.yul\":3369:3375   */\n      dup2\n        /* \"#utility.yul\":3356:3376   */\n      calldataload\n        /* \"#utility.yul\":3347:3376   */\n      swap1\n      pop\n        /* \"#utility.yul\":3385:3433   */\n      tag_227\n        /* \"#utility.yul\":3427:3432   */\n      dup2\n        /* \"#utility.yul\":3385:3433   */\n      tag_130\n      jump\t// in\n    tag_227:\n        /* \"#utility.yul\":3270:3439   */\n      swap3\n      swap2\n      pop\n      pop\n      jump\t// out\n        /* \"#utility.yul\":3445:3804   */\n    tag_26:\n        /* \"#utility.yul\":3519:3525   */\n      0x00\n        /* \"#utility.yul\":3568:3570   */\n      0x20\n        /* \"#utility.yul\":3556:3565   */\n      dup3\n        /* \"#utility.yul\":3547:3554   */\n      dup5\n        /* \"#utility.yul\":3543:3566   */\n      sub\n        /* \"#utility.yul\":3539:3571   */\n      slt\n        /* \"#utility.yul\":3536:3655   */\n      iszero\n      tag_229\n      jumpi\n        /* \"#utility.yul\":3574:3653   */\n      tag_230\n      tag_119\n      jump\t// in\n    tag_230:\n        /* \"#utility.yul\":3536:3655   */\n    tag_229:\n        /* \"#utility.yul\":3694:3695   */\n      0x00\n        /* \"#utility.yul\":3719:3787   */\n      tag_231\n        /* \"#utility.yul\":3779:3786   */\n      dup5\n        /* \"#utility.yul\":3770:3776   */\n      dup3\n        /* \"#utility.yul\":3759:3768   */\n      dup6\n        /* \"#utility.yul\":3755:3777   */\n      add\n        /* \"#utility.yul\":3719:3787   */\n      tag_131\n      jump\t// in\n    tag_231:\n        /* \"#utility.yul\":3709:3787   */\n      swap2\n      pop\n        /* \"#utility.yul\":3665:3797   */\n      pop\n        /* \"#utility.yul\":3445:3804   */\n      swap3\n      swap2\n      pop\n      pop\n      jump\t// out\n        /* \"#utility.yul\":3810:3936   */\n    tag_132:\n        /* \"#utility.yul\":3847:3854   */\n      0x00\n        /* \"#utility.yul\":3887:3929   */\n      0xffffffffffffffffffffffffffffffffffffffff\n        /* \"#utility.yul\":3880:3885   */\n      dup3\n        /* \"#utility.yul\":3876:3930   */\n      and\n        /* \"#utility.yul\":3865:3930   */\n      swap1\n      pop\n        /* \"#utility.yul\":3810:3936   */\n      swap2\n      swap1\n      pop\n      jump\t// out\n        /* \"#utility.yul\":3942:4038   */\n    tag_133:\n        /* \"#utility.yul\":3979:3986   */\n      0x00\n        /* \"#utility.yul\":4008:4032   */\n      tag_234\n        /* \"#utility.yul\":4026:4031   */\n      dup3\n        /* \"#utility.yul\":4008:4032   */\n      tag_132\n      jump\t// in\n    tag_234:\n        /* \"#utility.yul\":3997:4032   */\n      swap1\n      pop\n        /* \"#utility.yul\":3942:4038   */\n      swap2\n      swap1\n      pop\n      jump\t// out\n        /* \"#utility.yul\":4044:4166   */\n    tag_134:\n        /* \"#utility.yul\":4117:4141   */\n      tag_236\n        /* \"#utility.yul\":4135:4140   */\n      dup2\n        /* \"#utility.yul\":4117:4141   */\n      tag_133\n      jump\t// in\n    tag_236:\n        /* \"#utility.yul\":4110:4115   */\n      dup2\n        /* \"#utility.yul\":4107:4142   */\n      eq\n        /* \"#utility.yul\":4097:4160   */\n      tag_237\n      jumpi\n        /* \"#utility.yul\":4156:4157   */\n      0x00\n        /* \"#utility.yul\":4153:4154   */\n      0x00\n        /* \"#utility.yul\":4146:4158   */\n      revert\n        /* \"#utility.yul\":4097:4160   */\n    tag_237:\n        /* \"#utility.yul\":4044:4166   */\n      pop\n      jump\t// out\n        /* \"#utility.yul\":4172:4311   */\n    tag_135:\n        /* \"#utility.yul\":4218:4223   */\n      0x00\n        /* \"#utility.yul\":4256:4262   */\n      dup2\n        /* \"#utility.yul\":4243:4263   */\n      calldataload\n        /* \"#utility.yul\":4234:4263   */\n      swap1\n      pop\n        /* \"#utility.yul\":4272:4305   */\n      tag_239\n        /* \"#utility.yul\":4299:4304   */\n      dup2\n        /* \"#utility.yul\":4272:4305   */\n      tag_134\n      jump\t// in\n    tag_239:\n        /* \"#utility.yul\":4172:4311   */\n      swap3\n      swap2\n      pop\n      pop\n      jump\t// out\n        /* \"#utility.yul\":4317:4646   */\n    tag_33:\n        /* \"#utility.yul\":4376:4382   */\n      0x00\n        /* \"#utility.yul\":4425:4427   */\n      0x20\n        /* \"#utility.yul\":4413:4422   */\n      dup3\n        /* \"#utility.yul\":4404:4411   */\n      dup5\n        /* \"#utility.yul\":4400:4423   */\n      sub\n        /* \"#utility.yul\":4396:4428   */\n      slt\n        /* \"#utility.yul\":4393:4512   */\n      iszero\n      tag_241\n      jumpi\n        /* \"#utility.yul\":4431:4510   */\n      tag_242\n      tag_119\n      jump\t// in\n    tag_242:\n        /* \"#utility.yul\":4393:4512   */\n    tag_241:\n        /* \"#utility.yul\":4551:4552   */\n      0x00\n        /* \"#utility.yul\":4576:4629   */\n      tag_243\n        /* \"#utility.yul\":4621:4628   */\n      dup5\n        /* \"#utility.yul\":4612:4618   */\n      dup3\n        /* \"#utility.yul\":4601:4610   */\n      dup6\n        /* \"#utility.yul\":4597:4619   */\n      add\n        /* \"#utility.yul\":4576:4629   */\n      tag_135\n      jump\t// in\n    tag_243:\n        /* \"#utility.yul\":4566:4629   */\n      swap2\n      pop\n        /* \"#utility.yul\":4522:4639   */\n      pop\n        /* \"#utility.yul\":4317:4646   */\n      swap3\n      swap2\n      pop\n      pop\n      jump\t// out\n        /* \"#utility.yul\":4652:4742   */\n    tag_136:\n        /* \"#utility.yul\":4686:4693   */\n      0x00\n        /* \"#utility.yul\":4729:4734   */\n      dup2\n        /* \"#utility.yul\":4722:4735   */\n      iszero\n        /* \"#utility.yul\":4715:4736   */\n      iszero\n        /* \"#utility.yul\":4704:4736   */\n      swap1\n      pop\n        /* \"#utility.yul\":4652:4742   */\n      swap2\n      swap1\n      pop\n      jump\t// out\n        /* \"#utility.yul\":4748:4857   */\n    tag_137:\n        /* \"#utility.yul\":4829:4850   */\n      tag_246\n        /* \"#utility.yul\":4844:4849   */\n      dup2\n        /* \"#utility.yul\":4829:4850   */\n      tag_136\n      jump\t// in\n    tag_246:\n        /* \"#utility.yul\":4824:4827   */\n      dup3\n        /* \"#utility.yul\":4817:4851   */\n      mstore\n        /* \"#utility.yul\":4748:4857   */\n      pop\n      pop\n      jump\t// out\n        /* \"#utility.yul\":4863:5281   */\n    tag_36:\n        /* \"#utility.yul\":5000:5004   */\n      0x00\n        /* \"#utility.yul\":5038:5040   */\n      0x60\n        /* \"#utility.yul\":5027:5036   */\n      dup3\n        /* \"#utility.yul\":5023:5041   */\n      add\n        /* \"#utility.yul\":5015:5041   */\n      swap1\n      pop\n        /* \"#utility.yul\":5051:5116   */\n      tag_248\n        /* \"#utility.yul\":5113:5114   */\n      0x00\n        /* \"#utility.yul\":5102:5111   */\n      dup4\n        /* \"#utility.yul\":5098:5115   */\n      add\n        /* \"#utility.yul\":5089:5095   */\n      dup7\n        /* \"#utility.yul\":5051:5116   */\n      tag_137\n      jump\t// in\n    tag_248:\n        /* \"#utility.yul\":5126:5192   */\n      tag_249\n        /* \"#utility.yul\":5188:5190   */\n      0x20\n        /* \"#utility.yul\":5177:5186   */\n      dup4\n        /* \"#utility.yul\":5173:5191   */\n      add\n        /* \"#utility.yul\":5164:5170   */\n      dup6\n        /* \"#utility.yul\":5126:5192   */\n      tag_137\n      jump\t// in\n    tag_249:\n        /* \"#utility.yul\":5202:5274   */\n      tag_250\n        /* \"#utility.yul\":5270:5272   */\n      0x40\n        /* \"#utility.yul\":5259:5268   */\n      dup4\n        /* \"#utility.yul\":5255:5273   */\n      add\n        /* \"#utility.yul\":5246:5252   */\n      dup5\n        /* \"#utility.yul\":5202:5274   */\n      tag_129\n      jump\t// in\n    tag_250:\n        /* \"#utility.yul\":4863:5281   */\n      swap5\n      swap4\n      pop\n      pop\n      pop\n      pop\n      jump\t// out\n        /* \"#utility.yul\":5287:5467   */\n    tag_70:\n        /* \"#utility.yul\":5335:5412   */\n      0x4e487b7100000000000000000000000000000000000000000000000000000000\n        /* \"#utility.yul\":5332:5333   */\n      0x00\n        /* \"#utility.yul\":5325:5413   */\n      mstore\n        /* \"#utility.yul\":5432:5436   */\n      0x21\n        /* \"#utility.yul\":5429:5430   */\n      0x04\n        /* \"#utility.yul\":5422:5437   */\n      mstore\n        /* \"#utility.yul\":5456:5460   */\n      0x24\n        /* \"#utility.yul\":5453:5454   */\n      0x00\n        /* \"#utility.yul\":5446:5461   */\n      revert\n        /* \"#utility.yul\":5473:5593   */\n    tag_138:\n        /* \"#utility.yul\":5561:5562   */\n      0x04\n        /* \"#utility.yul\":5554:5559   */\n      dup2\n        /* \"#utility.yul\":5551:5563   */\n      lt\n        /* \"#utility.yul\":5541:5587   */\n      tag_253\n      jumpi\n        /* \"#utility.yul\":5567:5585   */\n      tag_254\n      tag_70\n      jump\t// in\n    tag_254:\n        /* \"#utility.yul\":5541:5587   */\n    tag_253:\n        /* \"#utility.yul\":5473:5593   */\n      pop\n      jump\t// out\n        /* \"#utility.yul\":5599:5740   */\n    tag_139:\n        /* \"#utility.yul\":5651:5658   */\n      0x00\n        /* \"#utility.yul\":5680:5685   */\n      dup2\n        /* \"#utility.yul\":5669:5685   */\n      swap1\n      pop\n        /* \"#utility.yul\":5686:5734   */\n      tag_256\n        /* \"#utility.yul\":5728:5733   */\n      dup3\n        /* \"#utility.yul\":5686:5734   */\n      tag_138\n      jump\t// in\n    tag_256:\n        /* \"#utility.yul\":5599:5740   */\n      swap2\n      swap1\n      pop\n      jump\t// out\n        /* \"#utility.yul\":5746:5887   */\n    tag_140:\n        /* \"#utility.yul\":5809:5818   */\n      0x00\n        /* \"#utility.yul\":5842:5881   */\n      tag_258\n        /* \"#utility.yul\":5875:5880   */\n      dup3\n        /* \"#utility.yul\":5842:5881   */\n      tag_139\n      jump\t// in\n    tag_258:\n        /* \"#utility.yul\":5829:5881   */\n      swap1\n      pop\n        /* \"#utility.yul\":5746:5887   */\n      swap2\n      swap1\n      pop\n      jump\t// out\n        /* \"#utility.yul\":5893:6050   */\n    tag_141:\n        /* \"#utility.yul\":5993:6043   */\n      tag_260\n        /* \"#utility.yul\":6037:6042   */\n      dup2\n        /* \"#utility.yul\":5993:6043   */\n      tag_140\n      jump\t// in\n    tag_260:\n        /* \"#utility.yul\":5988:5991   */\n      dup3\n        /* \"#utility.yul\":5981:6044   */\n      mstore\n        /* \"#utility.yul\":5893:6050   */\n      pop\n      pop\n      jump\t// out\n        /* \"#utility.yul\":6056:6304   */\n    tag_40:\n        /* \"#utility.yul\":6162:6166   */\n      0x00\n        /* \"#utility.yul\":6200:6202   */\n      0x20\n        /* \"#utility.yul\":6189:6198   */\n      dup3\n        /* \"#utility.yul\":6185:6203   */\n      add\n        /* \"#utility.yul\":6177:6203   */\n      swap1\n      pop\n        /* \"#utility.yul\":6213:6297   */\n      tag_262\n        /* \"#utility.yul\":6294:6295   */\n      0x00\n        /* \"#utility.yul\":6283:6292   */\n      dup4\n        /* \"#utility.yul\":6279:6296   */\n      add\n        /* \"#utility.yul\":6270:6276   */\n      dup5\n        /* \"#utility.yul\":6213:6297   */\n      tag_141\n      jump\t// in\n    tag_262:\n        /* \"#utility.yul\":6056:6304   */\n      swap3\n      swap2\n      pop\n      pop\n      jump\t// out\n        /* \"#utility.yul\":6310:6428   */\n    tag_142:\n        /* \"#utility.yul\":6397:6421   */\n      tag_264\n        /* \"#utility.yul\":6415:6420   */\n      dup2\n        /* \"#utility.yul\":6397:6421   */\n      tag_133\n      jump\t// in\n    tag_264:\n        /* \"#utility.yul\":6392:6395   */\n      dup3\n        /* \"#utility.yul\":6385:6422   */\n      mstore\n        /* \"#utility.yul\":6310:6428   */\n      pop\n      pop\n      jump\t// out\n        /* \"#utility.yul\":6434:6656   */\n    tag_50:\n        /* \"#utility.yul\":6527:6531   */\n      0x00\n        /* \"#utility.yul\":6565:6567   */\n      0x20\n        /* \"#utility.yul\":6554:6563   */\n      dup3\n        /* \"#utility.yul\":6550:6568   */\n      add\n        /* \"#utility.yul\":6542:6568   */\n      swap1\n      pop\n        /* \"#utility.yul\":6578:6649   */\n      tag_266\n        /* \"#utility.yul\":6646:6647   */\n      0x00\n        /* \"#utility.yul\":6635:6644   */\n      dup4\n        /* \"#utility.yul\":6631:6648   */\n      add\n        /* \"#utility.yul\":6622:6628   */\n      dup5\n        /* \"#utility.yul\":6578:6649   */\n      tag_142\n      jump\t// in\n    tag_266:\n        /* \"#utility.yul\":6434:6656   */\n      swap3\n      swap2\n      pop\n      pop\n      jump\t// out\n        /* \"#utility.yul\":6662:6779   */\n    tag_143:\n        /* \"#utility.yul\":6771:6772   */\n      0x00\n        /* \"#utility.yul\":6768:6769   */\n      0x00\n        /* \"#utility.yul\":6761:6773   */\n      revert\n        /* \"#utility.yul\":6785:6902   */\n    tag_144:\n        /* \"#utility.yul\":6894:6895   */\n      0x00\n        /* \"#utility.yul\":6891:6892   */\n      0x00\n        /* \"#utility.yul\":6884:6896   */\n      revert\n        /* \"#utility.yul\":6908:7088   */\n    tag_145:\n        /* \"#utility.yul\":6956:7033   */\n      0x4e487b7100000000000000000000000000000000000000000000000000000000\n        /* \"#utility.yul\":6953:6954   */\n      0x00\n        /* \"#utility.yul\":6946:7034   */\n      mstore\n        /* \"#utility.yul\":7053:7057   */\n      0x41\n        /* \"#utility.yul\":7050:7051   */\n      0x04\n        /* \"#utility.yul\":7043:7058   */\n      mstore\n        /* \"#utility.yul\":7077:7081   */\n      0x24\n        /* \"#utility.yul\":7074:7075   */\n      0x00\n        /* \"#utility.yul\":7067:7082   */\n      revert\n        /* \"#utility.yul\":7094:7375   */\n    tag_146:\n        /* \"#utility.yul\":7177:7204   */\n      tag_271\n        /* \"#utility.yul\":7199:7203   */\n      dup3\n        /* \"#utility.yul\":7177:7204   */\n      tag_126\n      jump\t// in\n    tag_271:\n        /* \"#utility.yul\":7169:7175   */\n      dup2\n        /* \"#utility.yul\":7165:7205   */\n      add\n        /* \"#utility.yul\":7307:7313   */\n      dup2\n        /* \"#utility.yul\":7295:7305   */\n      dup2\n        /* \"#utility.yul\":7292:7314   */\n      lt\n        /* \"#utility.yul\":7271:7289   */\n      0xffffffffffffffff\n        /* \"#utility.yul\":7259:7269   */\n      dup3\n        /* \"#utility.yul\":7256:7290   */\n      gt\n        /* \"#utility.yul\":7253:7315   */\n      or\n        /* \"#utility.yul\":7250:7338   */\n      iszero\n      tag_272\n      jumpi\n        /* \"#utility.yul\":7318:7336   */\n      tag_273\n      tag_145\n      jump\t// in\n    tag_273:\n        /* \"#utility.yul\":7250:7338   */\n    tag_272:\n        /* \"#utility.yul\":7358:7368   */\n      dup1\n        /* \"#utility.yul\":7354:7356   */\n      0x40\n        /* \"#utility.yul\":7347:7369   */\n      mstore\n        /* \"#utility.yul\":7137:7375   */\n      pop\n        /* \"#utility.yul\":7094:7375   */\n      pop\n      pop\n      jump\t// out\n        /* \"#utility.yul\":7381:7510   */\n    tag_147:\n        /* \"#utility.yul\":7415:7421   */\n      0x00\n        /* \"#utility.yul\":7442:7462   */\n      tag_275\n      tag_118\n      jump\t// in\n    tag_275:\n        /* \"#utility.yul\":7432:7462   */\n      swap1\n      pop\n        /* \"#utility.yul\":7471:7504   */\n      tag_276\n        /* \"#utility.yul\":7499:7503   */\n      dup3\n        /* \"#utility.yul\":7491:7497   */\n      dup3\n        /* \"#utility.yul\":7471:7504   */\n      tag_146\n      jump\t// in\n    tag_276:\n        /* \"#utility.yul\":7381:7510   */\n      swap2\n      swap1\n      pop\n      jump\t// out\n        /* \"#utility.yul\":7516:7824   */\n    tag_148:\n        /* \"#utility.yul\":7578:7582   */\n      0x00\n        /* \"#utility.yul\":7668:7686   */\n      0xffffffffffffffff\n        /* \"#utility.yul\":7660:7666   */\n      dup3\n        /* \"#utility.yul\":7657:7687   */\n      gt\n        /* \"#utility.yul\":7654:7710   */\n      iszero\n      tag_278\n      jumpi\n        /* \"#utility.yul\":7690:7708   */\n      tag_279\n      tag_145\n      jump\t// in\n    tag_279:\n        /* \"#utility.yul\":7654:7710   */\n    tag_278:\n        /* \"#utility.yul\":7728:7757   */\n      tag_280\n        /* \"#utility.yul\":7750:7756   */\n      dup3\n        /* \"#utility.yul\":7728:7757   */\n      tag_126\n      jump\t// in\n    tag_280:\n        /* \"#utility.yul\":7720:7757   */\n      swap1\n      pop\n        /* \"#utility.yul\":7812:7816   */\n      0x20\n        /* \"#utility.yul\":7806:7810   */\n      dup2\n        /* \"#utility.yul\":7802:7817   */\n      add\n        /* \"#utility.yul\":7794:7817   */\n      swap1\n      pop\n        /* \"#utility.yul\":7516:7824   */\n      swap2\n      swap1\n      pop\n      jump\t// out\n        /* \"#utility.yul\":7830:7978   */\n    tag_149:\n        /* \"#utility.yul\":7928:7934   */\n      dup3\n        /* \"#utility.yul\":7923:7926   */\n      dup2\n        /* \"#utility.yul\":7918:7921   */\n      dup4\n        /* \"#utility.yul\":7905:7935   */\n      calldatacopy\n        /* \"#utility.yul\":7969:7970   */\n      0x00\n        /* \"#utility.yul\":7960:7966   */\n      dup4\n        /* \"#utility.yul\":7955:7958   */\n      dup4\n        /* \"#utility.yul\":7951:7967   */\n      add\n        /* \"#utility.yul\":7944:7971   */\n      mstore\n        /* \"#utility.yul\":7830:7978   */\n      pop\n      pop\n      pop\n      jump\t// out\n        /* \"#utility.yul\":7984:8409   */\n    tag_150:\n        /* \"#utility.yul\":8062:8067   */\n      0x00\n        /* \"#utility.yul\":8087:8153   */\n      tag_283\n        /* \"#utility.yul\":8103:8152   */\n      tag_284\n        /* \"#utility.yul\":8145:8151   */\n      dup5\n        /* \"#utility.yul\":8103:8152   */\n      tag_148\n      jump\t// in\n    tag_284:\n        /* \"#utility.yul\":8087:8153   */\n      tag_147\n      jump\t// in\n    tag_283:\n        /* \"#utility.yul\":8078:8153   */\n      swap1\n      pop\n        /* \"#utility.yul\":8176:8182   */\n      dup3\n        /* \"#utility.yul\":8169:8174   */\n      dup2\n        /* \"#utility.yul\":8162:8183   */\n      mstore\n        /* \"#utility.yul\":8214:8218   */\n      0x20\n        /* \"#utility.yul\":8207:8212   */\n      dup2\n        /* \"#utility.yul\":8203:8219   */\n      add\n        /* \"#utility.yul\":8252:8255   */\n      dup5\n        /* \"#utility.yul\":8243:8249   */\n      dup5\n        /* \"#utility.yul\":8238:8241   */\n      dup5\n        /* \"#utility.yul\":8234:8250   */\n      add\n        /* \"#utility.yul\":8231:8256   */\n      gt\n        /* \"#utility.yul\":8228:8340   */\n      iszero\n      tag_285\n      jumpi\n        /* \"#utility.yul\":8259:8338   */\n      tag_286\n      tag_144\n      jump\t// in\n    tag_286:\n        /* \"#utility.yul\":8228:8340   */\n    tag_285:\n        /* \"#utility.yul\":8349:8403   */\n      tag_287\n        /* \"#utility.yul\":8396:8402   */\n      dup5\n        /* \"#utility.yul\":8391:8394   */\n      dup3\n        /* \"#utility.yul\":8386:8389   */\n      dup6\n        /* \"#utility.yul\":8349:8403   */\n      tag_149\n      jump\t// in\n    tag_287:\n        /* \"#utility.yul\":8068:8409   */\n      pop\n        /* \"#utility.yul\":7984:8409   */\n      swap4\n      swap3\n      pop\n      pop\n      pop\n      jump\t// out\n        /* \"#utility.yul\":8429:8769   */\n    tag_151:\n        /* \"#utility.yul\":8485:8490   */\n      0x00\n        /* \"#utility.yul\":8534:8537   */\n      dup3\n        /* \"#utility.yul\":8527:8531   */\n      0x1f\n        /* \"#utility.yul\":8519:8525   */\n      dup4\n        /* \"#utility.yul\":8515:8532   */\n      add\n        /* \"#utility.yul\":8511:8538   */\n      slt\n        /* \"#utility.yul\":8501:8623   */\n      tag_289\n      jumpi\n        /* \"#utility.yul\":8542:8621   */\n      tag_290\n      tag_143\n      jump\t// in\n    tag_290:\n        /* \"#utility.yul\":8501:8623   */\n    tag_289:\n        /* \"#utility.yul\":8659:8665   */\n      dup2\n        /* \"#utility.yul\":8646:8666   */\n      calldataload\n        /* \"#utility.yul\":8684:8763   */\n      tag_291\n        /* \"#utility.yul\":8759:8762   */\n      dup5\n        /* \"#utility.yul\":8751:8757   */\n      dup3\n        /* \"#utility.yul\":8744:8748   */\n      0x20\n        /* \"#utility.yul\":8736:8742   */\n      dup7\n        /* \"#utility.yul\":8732:8749   */\n      add\n        /* \"#utility.yul\":8684:8763   */\n      tag_150\n      jump\t// in\n    tag_291:\n        /* \"#utility.yul\":8675:8763   */\n      swap2\n      pop\n        /* \"#utility.yul\":8491:8769   */\n      pop\n        /* \"#utility.yul\":8429:8769   */\n      swap3\n      swap2\n      pop\n      pop\n      jump\t// out\n        /* \"#utility.yul\":8775:8897   */\n    tag_152:\n        /* \"#utility.yul\":8848:8872   */\n      tag_293\n        /* \"#utility.yul\":8866:8871   */\n      dup2\n        /* \"#utility.yul\":8848:8872   */\n      tag_128\n      jump\t// in\n    tag_293:\n        /* \"#utility.yul\":8841:8846   */\n      dup2\n        /* \"#utility.yul\":8838:8873   */\n      eq\n        /* \"#utility.yul\":8828:8891   */\n      tag_294\n      jumpi\n        /* \"#utility.yul\":8887:8888   */\n      0x00\n        /* \"#utility.yul\":8884:8885   */\n      0x00\n        /* \"#utility.yul\":8877:8889   */\n      revert\n        /* \"#utility.yul\":8828:8891   */\n    tag_294:\n        /* \"#utility.yul\":8775:8897   */\n      pop\n      jump\t// out\n        /* \"#utility.yul\":8903:9042   */\n    tag_153:\n        /* \"#utility.yul\":8949:8954   */\n      0x00\n        /* \"#utility.yul\":8987:8993   */\n      dup2\n        /* \"#utility.yul\":8974:8994   */\n      calldataload\n        /* \"#utility.yul\":8965:8994   */\n      swap1\n      pop\n        /* \"#utility.yul\":9003:9036   */\n      tag_296\n        /* \"#utility.yul\":9030:9035   */\n      dup2\n        /* \"#utility.yul\":9003:9036   */\n      tag_152\n      jump\t// in\n    tag_296:\n        /* \"#utility.yul\":8903:9042   */\n      swap3\n      swap2\n      pop\n      pop\n      jump\t// out\n        /* \"#utility.yul\":9048:9702   */\n    tag_53:\n        /* \"#utility.yul\":9126:9132   */\n      0x00\n        /* \"#utility.yul\":9134:9140   */\n      0x00\n        /* \"#utility.yul\":9183:9185   */\n      0x40\n        /* \"#utility.yul\":9171:9180   */\n      dup4\n        /* \"#utility.yul\":9162:9169   */\n      dup6\n        /* \"#utility.yul\":9158:9181   */\n      sub\n        /* \"#utility.yul\":9154:9186   */\n      slt\n        /* \"#utility.yul\":9151:9270   */\n      iszero\n      tag_298\n      jumpi\n        /* \"#utility.yul\":9189:9268   */\n      tag_299\n      tag_119\n      jump\t// in\n    tag_299:\n        /* \"#utility.yul\":9151:9270   */\n    tag_298:\n        /* \"#utility.yul\":9337:9338   */\n      0x00\n        /* \"#utility.yul\":9326:9335   */\n      dup4\n        /* \"#utility.yul\":9322:9339   */\n      add\n        /* \"#utility.yul\":9309:9340   */\n      calldataload\n        /* \"#utility.yul\":9367:9385   */\n      0xffffffffffffffff\n        /* \"#utility.yul\":9359:9365   */\n      dup2\n        /* \"#utility.yul\":9356:9386   */\n      gt\n        /* \"#utility.yul\":9353:9470   */\n      iszero\n      tag_300\n      jumpi\n        /* \"#utility.yul\":9389:9468   */\n      tag_301\n      tag_120\n      jump\t// in\n    tag_301:\n        /* \"#utility.yul\":9353:9470   */\n    tag_300:\n        /* \"#utility.yul\":9494:9557   */\n      tag_302\n        /* \"#utility.yul\":9549:9556   */\n      dup6\n        /* \"#utility.yul\":9540:9546   */\n      dup3\n        /* \"#utility.yul\":9529:9538   */\n      dup7\n        /* \"#utility.yul\":9525:9547   */\n      add\n        /* \"#utility.yul\":9494:9557   */\n      tag_151\n      jump\t// in\n    tag_302:\n        /* \"#utility.yul\":9484:9557   */\n      swap3\n      pop\n        /* \"#utility.yul\":9280:9567   */\n      pop\n        /* \"#utility.yul\":9606:9608   */\n      0x20\n        /* \"#utility.yul\":9632:9685   */\n      tag_303\n        /* \"#utility.yul\":9677:9684   */\n      dup6\n        /* \"#utility.yul\":9668:9674   */\n      dup3\n        /* \"#utility.yul\":9657:9666   */\n      dup7\n        /* \"#utility.yul\":9653:9675   */\n      add\n        /* \"#utility.yul\":9632:9685   */\n      tag_153\n      jump\t// in\n    tag_303:\n        /* \"#utility.yul\":9622:9685   */\n      swap2\n      pop\n        /* \"#utility.yul\":9577:9695   */\n      pop\n        /* \"#utility.yul\":9048:9702   */\n      swap3\n      pop\n      swap3\n      swap1\n      pop\n      jump\t// out\n        /* \"#utility.yul\":9708:9888   */\n    tag_154:\n        /* \"#utility.yul\":9756:9833   */\n      0x4e487b7100000000000000000000000000000000000000000000000000000000\n        /* \"#utility.yul\":9753:9754   */\n      0x00\n        /* \"#utility.yul\":9746:9834   */\n      mstore\n        /* \"#utility.yul\":9853:9857   */\n      0x22\n        /* \"#utility.yul\":9850:9851   */\n      0x04\n        /* \"#utility.yul\":9843:9858   */\n      mstore\n        /* \"#utility.yul\":9877:9881   */\n      0x24\n        /* \"#utility.yul\":9874:9875   */\n      0x00\n        /* \"#utility.yul\":9867:9882   */\n      revert\n        /* \"#utility.yul\":9894:10214   */\n    tag_58:\n        /* \"#utility.yul\":9938:9944   */\n      0x00\n        /* \"#utility.yul\":9975:9976   */\n      0x02\n        /* \"#utility.yul\":9969:9973   */\n      dup3\n        /* \"#utility.yul\":9965:9977   */\n      div\n        /* \"#utility.yul\":9955:9977   */\n      swap1\n      pop\n        /* \"#utility.yul\":10022:10023   */\n      0x01\n        /* \"#utility.yul\":10016:10020   */\n      dup3\n        /* \"#utility.yul\":10012:10024   */\n      and\n        /* \"#utility.yul\":10043:10061   */\n      dup1\n        /* \"#utility.yul\":10033:10114   */\n      tag_306\n      jumpi\n        /* \"#utility.yul\":10099:10103   */\n      0x7f\n        /* \"#utility.yul\":10091:10097   */\n      dup3\n        /* \"#utility.yul\":10087:10104   */\n      and\n        /* \"#utility.yul\":10077:10104   */\n      swap2\n      pop\n        /* \"#utility.yul\":10033:10114   */\n    tag_306:\n        /* \"#utility.yul\":10161:10163   */\n      0x20\n        /* \"#utility.yul\":10153:10159   */\n      dup3\n        /* \"#utility.yul\":10150:10164   */\n      lt\n        /* \"#utility.yul\":10130:10148   */\n      dup2\n        /* \"#utility.yul\":10127:10165   */\n      sub\n        /* \"#utility.yul\":10124:10208   */\n      tag_307\n      jumpi\n        /* \"#utility.yul\":10180:10198   */\n      tag_308\n      tag_154\n      jump\t// in\n    tag_308:\n        /* \"#utility.yul\":10124:10208   */\n    tag_307:\n        /* \"#utility.yul\":9945:10214   */\n      pop\n        /* \"#utility.yul\":9894:10214   */\n      swap2\n      swap1\n      pop\n      jump\t// out\n        /* \"#utility.yul\":10220:10398   */\n    tag_155:\n        /* \"#utility.yul\":10360:10390   */\n      0x48616e79612050616e697469612079616e67206469697a696e6b616e00000000\n        /* \"#utility.yul\":10356:10357   */\n      0x00\n        /* \"#utility.yul\":10348:10354   */\n      dup3\n        /* \"#utility.yul\":10344:10358   */\n      add\n        /* \"#utility.yul\":10337:10391   */\n      mstore\n        /* \"#utility.yul\":10220:10398   */\n      pop\n      jump\t// out\n        /* \"#utility.yul\":10404:10770   */\n    tag_156:\n        /* \"#utility.yul\":10546:10549   */\n      0x00\n        /* \"#utility.yul\":10567:10634   */\n      tag_311\n        /* \"#utility.yul\":10631:10633   */\n      0x1c\n        /* \"#utility.yul\":10626:10629   */\n      dup4\n        /* \"#utility.yul\":10567:10634   */\n      tag_124\n      jump\t// in\n    tag_311:\n        /* \"#utility.yul\":10560:10634   */\n      swap2\n      pop\n        /* \"#utility.yul\":10643:10736   */\n      tag_312\n        /* \"#utility.yul\":10732:10735   */\n      dup3\n        /* \"#utility.yul\":10643:10736   */\n      tag_155\n      jump\t// in\n    tag_312:\n        /* \"#utility.yul\":10761:10763   */\n      0x20\n        /* \"#utility.yul\":10756:10759   */\n      dup3\n        /* \"#utility.yul\":10752:10764   */\n      add\n        /* \"#utility.yul\":10745:10764   */\n      swap1\n      pop\n        /* \"#utility.yul\":10404:10770   */\n      swap2\n      swap1\n      pop\n      jump\t// out\n        /* \"#utility.yul\":10776:11195   */\n    tag_66:\n        /* \"#utility.yul\":10942:10946   */\n      0x00\n        /* \"#utility.yul\":10980:10982   */\n      0x20\n        /* \"#utility.yul\":10969:10978   */\n      dup3\n        /* \"#utility.yul\":10965:10983   */\n      add\n        /* \"#utility.yul\":10957:10983   */\n      swap1\n      pop\n        /* \"#utility.yul\":11029:11038   */\n      dup2\n        /* \"#utility.yul\":11023:11027   */\n      dup2\n        /* \"#utility.yul\":11019:11039   */\n      sub\n        /* \"#utility.yul\":11015:11016   */\n      0x00\n        /* \"#utility.yul\":11004:11013   */\n      dup4\n        /* \"#utility.yul\":11000:11017   */\n      add\n        /* \"#utility.yul\":10993:11040   */\n      mstore\n        /* \"#utility.yul\":11057:11188   */\n      tag_314\n        /* \"#utility.yul\":11183:11187   */\n      dup2\n        /* \"#utility.yul\":11057:11188   */\n      tag_156\n      jump\t// in\n    tag_314:\n        /* \"#utility.yul\":11049:11188   */\n      swap1\n      pop\n        /* \"#utility.yul\":10776:11195   */\n      swap2\n      swap1\n      pop\n      jump\t// out\n        /* \"#utility.yul\":11201:11370   */\n    tag_157:\n        /* \"#utility.yul\":11341:11362   */\n      0x566f74696e672062656c756d20646962756b6100000000000000000000000000\n        /* \"#utility.yul\":11337:11338   */\n      0x00\n        /* \"#utility.yul\":11329:11335   */\n      dup3\n        /* \"#utility.yul\":11325:11339   */\n      add\n        /* \"#utility.yul\":11318:11363   */\n      mstore\n        /* \"#utility.yul\":11201:11370   */\n      pop\n      jump\t// out\n        /* \"#utility.yul\":11376:11742   */\n    tag_158:\n        /* \"#utility.yul\":11518:11521   */\n      0x00\n        /* \"#utility.yul\":11539:11606   */\n      tag_317\n        /* \"#utility.yul\":11603:11605   */\n      0x13\n        /* \"#utility.yul\":11598:11601   */\n      dup4\n        /* \"#utility.yul\":11539:11606   */\n      tag_124\n      jump\t// in\n    tag_317:\n        /* \"#utility.yul\":11532:11606   */\n      swap2\n      pop\n        /* \"#utility.yul\":11615:11708   */\n      tag_318\n        /* \"#utility.yul\":11704:11707   */\n      dup3\n        /* \"#utility.yul\":11615:11708   */\n      tag_157\n      jump\t// in\n    tag_318:\n        /* \"#utility.yul\":11733:11735   */\n      0x20\n        /* \"#utility.yul\":11728:11731   */\n      dup3\n        /* \"#utility.yul\":11724:11736   */\n      add\n        /* \"#utility.yul\":11717:11736   */\n      swap1\n      pop\n        /* \"#utility.yul\":11376:11742   */\n      swap2\n      swap1\n      pop\n      jump\t// out\n        /* \"#utility.yul\":11748:12167   */\n    tag_78:\n        /* \"#utility.yul\":11914:11918   */\n      0x00\n        /* \"#utility.yul\":11952:11954   */\n      0x20\n        /* \"#utility.yul\":11941:11950   */\n      dup3\n        /* \"#utility.yul\":11937:11955   */\n      add\n        /* \"#utility.yul\":11929:11955   */\n      swap1\n      pop\n        /* \"#utility.yul\":12001:12010   */\n      dup2\n        /* \"#utility.yul\":11995:11999   */\n      dup2\n        /* \"#utility.yul\":11991:12011   */\n      sub\n        /* \"#utility.yul\":11987:11988   */\n      0x00\n        /* \"#utility.yul\":11976:11985   */\n      dup4\n        /* \"#utility.yul\":11972:11989   */\n      add\n        /* \"#utility.yul\":11965:12012   */\n      mstore\n        /* \"#utility.yul\":12029:12160   */\n      tag_320\n        /* \"#utility.yul\":12155:12159   */\n      dup2\n        /* \"#utility.yul\":12029:12160   */\n      tag_158\n      jump\t// in\n    tag_320:\n        /* \"#utility.yul\":12021:12160   */\n      swap1\n      pop\n        /* \"#utility.yul\":11748:12167   */\n      swap2\n      swap1\n      pop\n      jump\t// out\n        /* \"#utility.yul\":12173:12347   */\n    tag_159:\n        /* \"#utility.yul\":12313:12339   */\n      0x416e646120746964616b207465727665726966696b6173690000000000000000\n        /* \"#utility.yul\":12309:12310   */\n      0x00\n        /* \"#utility.yul\":12301:12307   */\n      dup3\n        /* \"#utility.yul\":12297:12311   */\n      add\n        /* \"#utility.yul\":12290:12340   */\n      mstore\n        /* \"#utility.yul\":12173:12347   */\n      pop\n      jump\t// out\n        /* \"#utility.yul\":12353:12719   */\n    tag_160:\n        /* \"#utility.yul\":12495:12498   */\n      0x00\n        /* \"#utility.yul\":12516:12583   */\n      tag_323\n        /* \"#utility.yul\":12580:12582   */\n      0x18\n        /* \"#utility.yul\":12575:12578   */\n      dup4\n        /* \"#utility.yul\":12516:12583   */\n      tag_124\n      jump\t// in\n    tag_323:\n        /* \"#utility.yul\":12509:12583   */\n      swap2\n      pop\n        /* \"#utility.yul\":12592:12685   */\n      tag_324\n        /* \"#utility.yul\":12681:12684   */\n      dup3\n        /* \"#utility.yul\":12592:12685   */\n      tag_159\n      jump\t// in\n    tag_324:\n        /* \"#utility.yul\":12710:12712   */\n      0x20\n        /* \"#utility.yul\":12705:12708   */\n      dup3\n        /* \"#utility.yul\":12701:12713   */\n      add\n        /* \"#utility.yul\":12694:12713   */\n      swap1\n      pop\n        /* \"#utility.yul\":12353:12719   */\n      swap2\n      swap1\n      pop\n      jump\t// out\n        /* \"#utility.yul\":12725:13144   */\n    tag_81:\n        /* \"#utility.yul\":12891:12895   */\n      0x00\n        /* \"#utility.yul\":12929:12931   */\n      0x20\n        /* \"#utility.yul\":12918:12927   */\n      dup3\n        /* \"#utility.yul\":12914:12932   */\n      add\n        /* \"#utility.yul\":12906:12932   */\n      swap1\n      pop\n        /* \"#utility.yul\":12978:12987   */\n      dup2\n        /* \"#utility.yul\":12972:12976   */\n      dup2\n        /* \"#utility.yul\":12968:12988   */\n      sub\n        /* \"#utility.yul\":12964:12965   */\n      0x00\n        /* \"#utility.yul\":12953:12962   */\n      dup4\n        /* \"#utility.yul\":12949:12966   */\n      add\n        /* \"#utility.yul\":12942:12989   */\n      mstore\n        /* \"#utility.yul\":13006:13137   */\n      tag_326\n        /* \"#utility.yul\":13132:13136   */\n      dup2\n        /* \"#utility.yul\":13006:13137   */\n      tag_160\n      jump\t// in\n    tag_326:\n        /* \"#utility.yul\":12998:13137   */\n      swap1\n      pop\n        /* \"#utility.yul\":12725:13144   */\n      swap2\n      swap1\n      pop\n      jump\t// out\n        /* \"#utility.yul\":13150:13318   */\n    tag_161:\n        /* \"#utility.yul\":13290:13310   */\n      0x416e6461207375646168206d656d696c69680000000000000000000000000000\n        /* \"#utility.yul\":13286:13287   */\n      0x00\n        /* \"#utility.yul\":13278:13284   */\n      dup3\n        /* \"#utility.yul\":13274:13288   */\n      add\n        /* \"#utility.yul\":13267:13311   */\n      mstore\n        /* \"#utility.yul\":13150:13318   */\n      pop\n      jump\t// out\n        /* \"#utility.yul\":13324:13690   */\n    tag_162:\n        /* \"#utility.yul\":13466:13469   */\n      0x00\n        /* \"#utility.yul\":13487:13554   */\n      tag_329\n        /* \"#utility.yul\":13551:13553   */\n      0x12\n        /* \"#utility.yul\":13546:13549   */\n      dup4\n        /* \"#utility.yul\":13487:13554   */\n      tag_124\n      jump\t// in\n    tag_329:\n        /* \"#utility.yul\":13480:13554   */\n      swap2\n      pop\n        /* \"#utility.yul\":13563:13656   */\n      tag_330\n        /* \"#utility.yul\":13652:13655   */\n      dup3\n        /* \"#utility.yul\":13563:13656   */\n      tag_161\n      jump\t// in\n    tag_330:\n        /* \"#utility.yul\":13681:13683   */\n      0x20\n        /* \"#utility.yul\":13676:13679   */\n      dup3\n        /* \"#utility.yul\":13672:13684   */\n      add\n        /* \"#utility.yul\":13665:13684   */\n      swap1\n      pop\n        /* \"#utility.yul\":13324:13690   */\n      swap2\n      swap1\n      pop\n      jump\t// out\n        /* \"#utility.yul\":13696:14115   */\n    tag_84:\n        /* \"#utility.yul\":13862:13866   */\n      0x00\n        /* \"#utility.yul\":13900:13902   */\n      0x20\n        /* \"#utility.yul\":13889:13898   */\n      dup3\n        /* \"#utility.yul\":13885:13903   */\n      add\n        /* \"#utility.yul\":13877:13903   */\n      swap1\n      pop\n        /* \"#utility.yul\":13949:13958   */\n      dup2\n        /* \"#utility.yul\":13943:13947   */\n      dup2\n        /* \"#utility.yul\":13939:13959   */\n      sub\n        /* \"#utility.yul\":13935:13936   */\n      0x00\n        /* \"#utility.yul\":13924:13933   */\n      dup4\n        /* \"#utility.yul\":13920:13937   */\n      add\n        /* \"#utility.yul\":13913:13960   */\n      mstore\n        /* \"#utility.yul\":13977:14108   */\n      tag_332\n        /* \"#utility.yul\":14103:14107   */\n      dup2\n        /* \"#utility.yul\":13977:14108   */\n      tag_162\n      jump\t// in\n    tag_332:\n        /* \"#utility.yul\":13969:14108   */\n      swap1\n      pop\n        /* \"#utility.yul\":13696:14115   */\n      swap2\n      swap1\n      pop\n      jump\t// out\n        /* \"#utility.yul\":14121:14291   */\n    tag_163:\n        /* \"#utility.yul\":14261:14283   */\n      0x4b616e646964617420746964616b2076616c6964000000000000000000000000\n        /* \"#utility.yul\":14257:14258   */\n      0x00\n        /* \"#utility.yul\":14249:14255   */\n      dup3\n        /* \"#utility.yul\":14245:14259   */\n      add\n        /* \"#utility.yul\":14238:14284   */\n      mstore\n        /* \"#utility.yul\":14121:14291   */\n      pop\n      jump\t// out\n        /* \"#utility.yul\":14297:14663   */\n    tag_164:\n        /* \"#utility.yul\":14439:14442   */\n      0x00\n        /* \"#utility.yul\":14460:14527   */\n      tag_335\n        /* \"#utility.yul\":14524:14526   */\n      0x14\n        /* \"#utility.yul\":14519:14522   */\n      dup4\n        /* \"#utility.yul\":14460:14527   */\n      tag_124\n      jump\t// in\n    tag_335:\n        /* \"#utility.yul\":14453:14527   */\n      swap2\n      pop\n        /* \"#utility.yul\":14536:14629   */\n      tag_336\n        /* \"#utility.yul\":14625:14628   */\n      dup3\n        /* \"#utility.yul\":14536:14629   */\n      tag_163\n      jump\t// in\n    tag_336:\n        /* \"#utility.yul\":14654:14656   */\n      0x20\n        /* \"#utility.yul\":14649:14652   */\n      dup3\n        /* \"#utility.yul\":14645:14657   */\n      add\n        /* \"#utility.yul\":14638:14657   */\n      swap1\n      pop\n        /* \"#utility.yul\":14297:14663   */\n      swap2\n      swap1\n      pop\n      jump\t// out\n        /* \"#utility.yul\":14669:15088   */\n    tag_87:\n        /* \"#utility.yul\":14835:14839   */\n      0x00\n        /* \"#utility.yul\":14873:14875   */\n      0x20\n        /* \"#utility.yul\":14862:14871   */\n      dup3\n        /* \"#utility.yul\":14858:14876   */\n      add\n        /* \"#utility.yul\":14850:14876   */\n      swap1\n      pop\n        /* \"#utility.yul\":14922:14931   */\n      dup2\n        /* \"#utility.yul\":14916:14920   */\n      dup2\n        /* \"#utility.yul\":14912:14932   */\n      sub\n        /* \"#utility.yul\":14908:14909   */\n      0x00\n        /* \"#utility.yul\":14897:14906   */\n      dup4\n        /* \"#utility.yul\":14893:14910   */\n      add\n        /* \"#utility.yul\":14886:14933   */\n      mstore\n        /* \"#utility.yul\":14950:15081   */\n      tag_338\n        /* \"#utility.yul\":15076:15080   */\n      dup2\n        /* \"#utility.yul\":14950:15081   */\n      tag_164\n      jump\t// in\n    tag_338:\n        /* \"#utility.yul\":14942:15081   */\n      swap1\n      pop\n        /* \"#utility.yul\":14669:15088   */\n      swap2\n      swap1\n      pop\n      jump\t// out\n        /* \"#utility.yul\":15094:15188   */\n    tag_165:\n        /* \"#utility.yul\":15127:15135   */\n      0x00\n        /* \"#utility.yul\":15175:15180   */\n      dup2\n        /* \"#utility.yul\":15171:15173   */\n      0x60\n        /* \"#utility.yul\":15167:15181   */\n      shl\n        /* \"#utility.yul\":15146:15181   */\n      swap1\n      pop\n        /* \"#utility.yul\":15094:15188   */\n      swap2\n      swap1\n      pop\n      jump\t// out\n        /* \"#utility.yul\":15194:15288   */\n    tag_166:\n        /* \"#utility.yul\":15233:15240   */\n      0x00\n        /* \"#utility.yul\":15262:15282   */\n      tag_341\n        /* \"#utility.yul\":15276:15281   */\n      dup3\n        /* \"#utility.yul\":15262:15282   */\n      tag_165\n      jump\t// in\n    tag_341:\n        /* \"#utility.yul\":15251:15282   */\n      swap1\n      pop\n        /* \"#utility.yul\":15194:15288   */\n      swap2\n      swap1\n      pop\n      jump\t// out\n        /* \"#utility.yul\":15294:15394   */\n    tag_167:\n        /* \"#utility.yul\":15333:15340   */\n      0x00\n        /* \"#utility.yul\":15362:15388   */\n      tag_343\n        /* \"#utility.yul\":15382:15387   */\n      dup3\n        /* \"#utility.yul\":15362:15388   */\n      tag_166\n      jump\t// in\n    tag_343:\n        /* \"#utility.yul\":15351:15388   */\n      swap1\n      pop\n        /* \"#utility.yul\":15294:15394   */\n      swap2\n      swap1\n      pop\n      jump\t// out\n        /* \"#utility.yul\":15400:15557   */\n    tag_168:\n        /* \"#utility.yul\":15505:15550   */\n      tag_345\n        /* \"#utility.yul\":15525:15549   */\n      tag_346\n        /* \"#utility.yul\":15543:15548   */\n      dup3\n        /* \"#utility.yul\":15525:15549   */\n      tag_133\n      jump\t// in\n    tag_346:\n        /* \"#utility.yul\":15505:15550   */\n      tag_167\n      jump\t// in\n    tag_345:\n        /* \"#utility.yul\":15500:15503   */\n      dup3\n        /* \"#utility.yul\":15493:15551   */\n      mstore\n        /* \"#utility.yul\":15400:15557   */\n      pop\n      pop\n      jump\t// out\n        /* \"#utility.yul\":15563:15642   */\n    tag_169:\n        /* \"#utility.yul\":15602:15609   */\n      0x00\n        /* \"#utility.yul\":15631:15636   */\n      dup2\n        /* \"#utility.yul\":15620:15636   */\n      swap1\n      pop\n        /* \"#utility.yul\":15563:15642   */\n      swap2\n      swap1\n      pop\n      jump\t// out\n        /* \"#utility.yul\":15648:15805   */\n    tag_170:\n        /* \"#utility.yul\":15753:15798   */\n      tag_349\n        /* \"#utility.yul\":15773:15797   */\n      tag_350\n        /* \"#utility.yul\":15791:15796   */\n      dup3\n        /* \"#utility.yul\":15773:15797   */\n      tag_116\n      jump\t// in\n    tag_350:\n        /* \"#utility.yul\":15753:15798   */\n      tag_169\n      jump\t// in\n    tag_349:\n        /* \"#utility.yul\":15748:15751   */\n      dup3\n        /* \"#utility.yul\":15741:15799   */\n      mstore\n        /* \"#utility.yul\":15648:15805   */\n      pop\n      pop\n      jump\t// out\n        /* \"#utility.yul\":15811:16349   */\n    tag_89:\n        /* \"#utility.yul\":15979:15982   */\n      0x00\n        /* \"#utility.yul\":15994:16069   */\n      tag_352\n        /* \"#utility.yul\":16065:16068   */\n      dup3\n        /* \"#utility.yul\":16056:16062   */\n      dup7\n        /* \"#utility.yul\":15994:16069   */\n      tag_168\n      jump\t// in\n    tag_352:\n        /* \"#utility.yul\":16094:16096   */\n      0x14\n        /* \"#utility.yul\":16089:16092   */\n      dup3\n        /* \"#utility.yul\":16085:16097   */\n      add\n        /* \"#utility.yul\":16078:16097   */\n      swap2\n      pop\n        /* \"#utility.yul\":16107:16182   */\n      tag_353\n        /* \"#utility.yul\":16178:16181   */\n      dup3\n        /* \"#utility.yul\":16169:16175   */\n      dup6\n        /* \"#utility.yul\":16107:16182   */\n      tag_170\n      jump\t// in\n    tag_353:\n        /* \"#utility.yul\":16207:16209   */\n      0x20\n        /* \"#utility.yul\":16202:16205   */\n      dup3\n        /* \"#utility.yul\":16198:16210   */\n      add\n        /* \"#utility.yul\":16191:16210   */\n      swap2\n      pop\n        /* \"#utility.yul\":16220:16295   */\n      tag_354\n        /* \"#utility.yul\":16291:16294   */\n      dup3\n        /* \"#utility.yul\":16282:16288   */\n      dup5\n        /* \"#utility.yul\":16220:16295   */\n      tag_170\n      jump\t// in\n    tag_354:\n        /* \"#utility.yul\":16320:16322   */\n      0x20\n        /* \"#utility.yul\":16315:16318   */\n      dup3\n        /* \"#utility.yul\":16311:16323   */\n      add\n        /* \"#utility.yul\":16304:16323   */\n      swap2\n      pop\n        /* \"#utility.yul\":16340:16343   */\n      dup2\n        /* \"#utility.yul\":16333:16343   */\n      swap1\n      pop\n        /* \"#utility.yul\":15811:16349   */\n      swap5\n      swap4\n      pop\n      pop\n      pop\n      pop\n      jump\t// out\n        /* \"#utility.yul\":16355:16535   */\n    tag_92:\n        /* \"#utility.yul\":16403:16480   */\n      0x4e487b7100000000000000000000000000000000000000000000000000000000\n        /* \"#utility.yul\":16400:16401   */\n      0x00\n        /* \"#utility.yul\":16393:16481   */\n      mstore\n        /* \"#utility.yul\":16500:16504   */\n      0x32\n        /* \"#utility.yul\":16497:16498   */\n      0x04\n        /* \"#utility.yul\":16490:16505   */\n      mstore\n        /* \"#utility.yul\":16524:16528   */\n      0x24\n        /* \"#utility.yul\":16521:16522   */\n      0x00\n        /* \"#utility.yul\":16514:16529   */\n      revert\n        /* \"#utility.yul\":16541:16721   */\n    tag_171:\n        /* \"#utility.yul\":16589:16666   */\n      0x4e487b7100000000000000000000000000000000000000000000000000000000\n        /* \"#utility.yul\":16586:16587   */\n      0x00\n        /* \"#utility.yul\":16579:16667   */\n      mstore\n        /* \"#utility.yul\":16686:16690   */\n      0x11\n        /* \"#utility.yul\":16683:16684   */\n      0x04\n        /* \"#utility.yul\":16676:16691   */\n      mstore\n        /* \"#utility.yul\":16710:16714   */\n      0x24\n        /* \"#utility.yul\":16707:16708   */\n      0x00\n        /* \"#utility.yul\":16700:16715   */\n      revert\n        /* \"#utility.yul\":16727:16960   */\n    tag_95:\n        /* \"#utility.yul\":16766:16769   */\n      0x00\n        /* \"#utility.yul\":16789:16813   */\n      tag_358\n        /* \"#utility.yul\":16807:16812   */\n      dup3\n        /* \"#utility.yul\":16789:16813   */\n      tag_116\n      jump\t// in\n    tag_358:\n        /* \"#utility.yul\":16780:16813   */\n      swap2\n      pop\n        /* \"#utility.yul\":16835:16901   */\n      0xffffffffffffffffffffffffffffffffffffffffffffffffffffffffffffffff\n        /* \"#utility.yul\":16828:16833   */\n      dup3\n        /* \"#utility.yul\":16825:16902   */\n      sub\n        /* \"#utility.yul\":16822:16925   */\n      tag_359\n      jumpi\n        /* \"#utility.yul\":16905:16923   */\n      tag_360\n      tag_171\n      jump\t// in\n    tag_360:\n        /* \"#utility.yul\":16822:16925   */\n    tag_359:\n        /* \"#utility.yul\":16952:16953   */\n      0x01\n        /* \"#utility.yul\":16945:16950   */\n      dup3\n        /* \"#utility.yul\":16941:16954   */\n      add\n        /* \"#utility.yul\":16934:16954   */\n      swap1\n      pop\n        /* \"#utility.yul\":16727:16960   */\n      swap2\n      swap1\n      pop\n      jump\t// out\n        /* \"#utility.yul\":16966:17140   */\n    tag_172:\n        /* \"#utility.yul\":17106:17132   */\n      0x48616e7961206269736120646920666173652053455455500000000000000000\n        /* \"#utility.yul\":17102:17103   */\n      0x00\n        /* \"#utility.yul\":17094:17100   */\n      dup3\n        /* \"#utility.yul\":17090:17104   */\n      add\n        /* \"#utility.yul\":17083:17133   */\n      mstore\n        /* \"#utility.yul\":16966:17140   */\n      pop\n      jump\t// out\n        /* \"#utility.yul\":17146:17512   */\n    tag_173:\n        /* \"#utility.yul\":17288:17291   */\n      0x00\n        /* \"#utility.yul\":17309:17376   */\n      tag_363\n        /* \"#utility.yul\":17373:17375   */\n      0x18\n        /* \"#utility.yul\":17368:17371   */\n      dup4\n        /* \"#utility.yul\":17309:17376   */\n      tag_124\n      jump\t// in\n    tag_363:\n        /* \"#utility.yul\":17302:17376   */\n      swap2\n      pop\n        /* \"#utility.yul\":17385:17478   */\n      tag_364\n        /* \"#utility.yul\":17474:17477   */\n      dup3\n        /* \"#utility.yul\":17385:17478   */\n      tag_172\n      jump\t// in\n    tag_364:\n        /* \"#utility.yul\":17503:17505   */\n      0x20\n        /* \"#utility.yul\":17498:17501   */\n      dup3\n        /* \"#utility.yul\":17494:17506   */\n      add\n        /* \"#utility.yul\":17487:17506   */\n      swap1\n      pop\n        /* \"#utility.yul\":17146:17512   */\n      swap2\n      swap1\n      pop\n      jump\t// out\n        /* \"#utility.yul\":17518:17937   */\n    tag_112:\n        /* \"#utility.yul\":17684:17688   */\n      0x00\n        /* \"#utility.yul\":17722:17724   */\n      0x20\n        /* \"#utility.yul\":17711:17720   */\n      dup3\n        /* \"#utility.yul\":17707:17725   */\n      add\n        /* \"#utility.yul\":17699:17725   */\n      swap1\n      pop\n        /* \"#utility.yul\":17771:17780   */\n      dup2\n        /* \"#utility.yul\":17765:17769   */\n      dup2\n        /* \"#utility.yul\":17761:17781   */\n      sub\n        /* \"#utility.yul\":17757:17758   */\n      0x00\n        /* \"#utility.yul\":17746:17755   */\n      dup4\n        /* \"#utility.yul\":17742:17759   */\n      add\n        /* \"#utility.yul\":17735:17782   */\n      mstore\n        /* \"#utility.yul\":17799:17930   */\n      tag_366\n        /* \"#utility.yul\":17925:17929   */\n      dup2\n        /* \"#utility.yul\":17799:17930   */\n      tag_173\n      jump\t// in\n    tag_366:\n        /* \"#utility.yul\":17791:17930   */\n      swap1\n      pop\n        /* \"#utility.yul\":17518:17937   */\n      swap2\n      swap1\n      pop\n      jump\t// out\n        /* \"#utility.yul\":17943:18084   */\n    tag_174:\n        /* \"#utility.yul\":17992:17996   */\n      0x00\n        /* \"#utility.yul\":18015:18018   */\n      dup2\n        /* \"#utility.yul\":18007:18018   */\n      swap1\n      pop\n        /* \"#utility.yul\":18038:18041   */\n      dup2\n        /* \"#utility.yul\":18035:18036   */\n      0x00\n        /* \"#utility.yul\":18028:18042   */\n      mstore\n        /* \"#utility.yul\":18072:18076   */\n      0x20\n        /* \"#utility.yul\":18069:18070   */\n      0x00\n        /* \"#utility.yul\":18059:18077   */\n      keccak256\n        /* \"#utility.yul\":18051:18077   */\n      swap1\n      pop\n        /* \"#utility.yul\":17943:18084   */\n      swap2\n      swap1\n      pop\n      jump\t// out\n        /* \"#utility.yul\":18090:18183   */\n    tag_175:\n        /* \"#utility.yul\":18127:18133   */\n      0x00\n        /* \"#utility.yul\":18174:18176   */\n      0x20\n        /* \"#utility.yul\":18169:18171   */\n      0x1f\n        /* \"#utility.yul\":18162:18167   */\n      dup4\n        /* \"#utility.yul\":18158:18172   */\n      add\n        /* \"#utility.yul\":18154:18177   */\n      div\n        /* \"#utility.yul\":18144:18177   */\n      swap1\n      pop\n        /* \"#utility.yul\":18090:18183   */\n      swap2\n      swap1\n      pop\n      jump\t// out\n        /* \"#utility.yul\":18189:18296   */\n    tag_176:\n        /* \"#utility.yul\":18233:18241   */\n      0x00\n        /* \"#utility.yul\":18283:18288   */\n      dup3\n        /* \"#utility.yul\":18277:18281   */\n      dup3\n        /* \"#utility.yul\":18273:18289   */\n      shl\n        /* \"#utility.yul\":18252:18289   */\n      swap1\n      pop\n        /* \"#utility.yul\":18189:18296   */\n      swap3\n      swap2\n      pop\n      pop\n      jump\t// out\n        /* \"#utility.yul\":18302:18695   */\n    tag_177:\n        /* \"#utility.yul\":18371:18377   */\n      0x00\n        /* \"#utility.yul\":18421:18422   */\n      0x08\n        /* \"#utility.yul\":18409:18419   */\n      dup4\n        /* \"#utility.yul\":18405:18423   */\n      mul\n        /* \"#utility.yul\":18444:18541   */\n      tag_371\n        /* \"#utility.yul\":18474:18540   */\n      0xffffffffffffffffffffffffffffffffffffffffffffffffffffffffffffffff\n        /* \"#utility.yul\":18463:18472   */\n      dup3\n        /* \"#utility.yul\":18444:18541   */\n      tag_176\n      jump\t// in\n    tag_371:\n        /* \"#utility.yul\":18562:18601   */\n      tag_372\n        /* \"#utility.yul\":18592:18600   */\n      dup7\n        /* \"#utility.yul\":18581:18590   */\n      dup4\n        /* \"#utility.yul\":18562:18601   */\n      tag_176\n      jump\t// in\n    tag_372:\n        /* \"#utility.yul\":18550:18601   */\n      swap6\n      pop\n        /* \"#utility.yul\":18634:18638   */\n      dup1\n        /* \"#utility.yul\":18630:18639   */\n      not\n        /* \"#utility.yul\":18623:18628   */\n      dup5\n        /* \"#utility.yul\":18619:18640   */\n      and\n        /* \"#utility.yul\":18610:18640   */\n      swap4\n      pop\n        /* \"#utility.yul\":18683:18687   */\n      dup1\n        /* \"#utility.yul\":18673:18681   */\n      dup7\n        /* \"#utility.yul\":18669:18688   */\n      and\n        /* \"#utility.yul\":18662:18667   */\n      dup5\n        /* \"#utility.yul\":18659:18689   */\n      or\n        /* \"#utility.yul\":18649:18689   */\n      swap3\n      pop\n        /* \"#utility.yul\":18378:18695   */\n      pop\n      pop\n        /* \"#utility.yul\":18302:18695   */\n      swap4\n      swap3\n      pop\n      pop\n      pop\n      jump\t// out\n        /* \"#utility.yul\":18701:18761   */\n    tag_178:\n        /* \"#utility.yul\":18729:18732   */\n      0x00\n        /* \"#utility.yul\":18750:18755   */\n      dup2\n        /* \"#utility.yul\":18743:18755   */\n      swap1\n      pop\n        /* \"#utility.yul\":18701:18761   */\n      swap2\n      swap1\n      pop\n      jump\t// out\n        /* \"#utility.yul\":18767:18909   */\n    tag_179:\n        /* \"#utility.yul\":18817:18826   */\n      0x00\n        /* \"#utility.yul\":18850:18903   */\n      tag_375\n        /* \"#utility.yul\":18868:18902   */\n      tag_376\n        /* \"#utility.yul\":18877:18901   */\n      tag_377\n        /* \"#utility.yul\":18895:18900   */\n      dup5\n        /* \"#utility.yul\":18877:18901   */\n      tag_116\n      jump\t// in\n    tag_377:\n        /* \"#utility.yul\":18868:18902   */\n      tag_178\n      jump\t// in\n    tag_376:\n        /* \"#utility.yul\":18850:18903   */\n      tag_116\n      jump\t// in\n    tag_375:\n        /* \"#utility.yul\":18837:18903   */\n      swap1\n      pop\n        /* \"#utility.yul\":18767:18909   */\n      swap2\n      swap1\n      pop\n      jump\t// out\n        /* \"#utility.yul\":18915:18990   */\n    tag_180:\n        /* \"#utility.yul\":18958:18961   */\n      0x00\n        /* \"#utility.yul\":18979:18984   */\n      dup2\n        /* \"#utility.yul\":18972:18984   */\n      swap1\n      pop\n        /* \"#utility.yul\":18915:18990   */\n      swap2\n      swap1\n      pop\n      jump\t// out\n        /* \"#utility.yul\":18996:19265   */\n    tag_181:\n        /* \"#utility.yul\":19106:19145   */\n      tag_380\n        /* \"#utility.yul\":19137:19144   */\n      dup4\n        /* \"#utility.yul\":19106:19145   */\n      tag_179\n      jump\t// in\n    tag_380:\n        /* \"#utility.yul\":19167:19258   */\n      tag_381\n        /* \"#utility.yul\":19216:19257   */\n      tag_382\n        /* \"#utility.yul\":19240:19256   */\n      dup3\n        /* \"#utility.yul\":19216:19257   */\n      tag_180\n      jump\t// in\n    tag_382:\n        /* \"#utility.yul\":19208:19214   */\n      dup5\n        /* \"#utility.yul\":19201:19205   */\n      dup5\n        /* \"#utility.yul\":19195:19206   */\n      sload\n        /* \"#utility.yul\":19167:19258   */\n      tag_177\n      jump\t// in\n    tag_381:\n        /* \"#utility.yul\":19161:19165   */\n      dup3\n        /* \"#utility.yul\":19154:19259   */\n      sstore\n        /* \"#utility.yul\":19072:19265   */\n      pop\n        /* \"#utility.yul\":18996:19265   */\n      pop\n      pop\n      pop\n      jump\t// out\n        /* \"#utility.yul\":19271:19344   */\n    tag_182:\n        /* \"#utility.yul\":19316:19319   */\n      0x00\n        /* \"#utility.yul\":19337:19338   */\n      0x00\n        /* \"#utility.yul\":19330:19338   */\n      swap1\n      pop\n        /* \"#utility.yul\":19271:19344   */\n      swap1\n      jump\t// out\n        /* \"#utility.yul\":19350:19539   */\n    tag_183:\n        /* \"#utility.yul\":19427:19459   */\n      tag_385\n      tag_182\n      jump\t// in\n    tag_385:\n        /* \"#utility.yul\":19468:19533   */\n      tag_386\n        /* \"#utility.yul\":19526:19532   */\n      dup2\n        /* \"#utility.yul\":19518:19524   */\n      dup5\n        /* \"#utility.yul\":19512:19516   */\n      dup5\n        /* \"#utility.yul\":19468:19533   */\n      tag_181\n      jump\t// in\n    tag_386:\n        /* \"#utility.yul\":19403:19539   */\n      pop\n        /* \"#utility.yul\":19350:19539   */\n      pop\n      pop\n      jump\t// out\n        /* \"#utility.yul\":19545:19731   */\n    tag_184:\n        /* \"#utility.yul\":19605:19725   */\n    tag_388:\n        /* \"#utility.yul\":19622:19625   */\n      dup2\n        /* \"#utility.yul\":19615:19620   */\n      dup2\n        /* \"#utility.yul\":19612:19626   */\n      lt\n        /* \"#utility.yul\":19605:19725   */\n      iszero\n      tag_390\n      jumpi\n        /* \"#utility.yul\":19676:19715   */\n      tag_391\n        /* \"#utility.yul\":19713:19714   */\n      0x00\n        /* \"#utility.yul\":19706:19711   */\n      dup3\n        /* \"#utility.yul\":19676:19715   */\n      tag_183\n      jump\t// in\n    tag_391:\n        /* \"#utility.yul\":19649:19650   */\n      0x01\n        /* \"#utility.yul\":19642:19647   */\n      dup2\n        /* \"#utility.yul\":19638:19651   */\n      add\n        /* \"#utility.yul\":19629:19651   */\n      swap1\n      pop\n        /* \"#utility.yul\":19605:19725   */\n      jump(tag_388)\n    tag_390:\n        /* \"#utility.yul\":19545:19731   */\n      pop\n      pop\n      jump\t// out\n        /* \"#utility.yul\":19737:20280   */\n    tag_185:\n        /* \"#utility.yul\":19838:19840   */\n      0x1f\n        /* \"#utility.yul\":19833:19836   */\n      dup3\n        /* \"#utility.yul\":19830:19841   */\n      gt\n        /* \"#utility.yul\":19827:20273   */\n      iszero\n      tag_393\n      jumpi\n        /* \"#utility.yul\":19872:19910   */\n      tag_394\n        /* \"#utility.yul\":19904:19909   */\n      dup2\n        /* \"#utility.yul\":19872:19910   */\n      tag_174\n      jump\t// in\n    tag_394:\n        /* \"#utility.yul\":19956:19985   */\n      tag_395\n        /* \"#utility.yul\":19974:19984   */\n      dup5\n        /* \"#utility.yul\":19956:19985   */\n      tag_175\n      jump\t// in\n    tag_395:\n        /* \"#utility.yul\":19946:19954   */\n      dup2\n        /* \"#utility.yul\":19942:19986   */\n      add\n        /* \"#utility.yul\":20139:20141   */\n      0x20\n        /* \"#utility.yul\":20127:20137   */\n      dup6\n        /* \"#utility.yul\":20124:20142   */\n      lt\n        /* \"#utility.yul\":20121:20170   */\n      iszero\n      tag_396\n      jumpi\n        /* \"#utility.yul\":20160:20168   */\n      dup2\n        /* \"#utility.yul\":20145:20168   */\n      swap1\n      pop\n        /* \"#utility.yul\":20121:20170   */\n    tag_396:\n        /* \"#utility.yul\":20183:20263   */\n      tag_397\n        /* \"#utility.yul\":20239:20261   */\n      tag_398\n        /* \"#utility.yul\":20257:20260   */\n      dup6\n        /* \"#utility.yul\":20239:20261   */\n      tag_175\n      jump\t// in\n    tag_398:\n        /* \"#utility.yul\":20229:20237   */\n      dup4\n        /* \"#utility.yul\":20225:20262   */\n      add\n        /* \"#utility.yul\":20212:20223   */\n      dup3\n        /* \"#utility.yul\":20183:20263   */\n      tag_184\n      jump\t// in\n    tag_397:\n        /* \"#utility.yul\":19842:20273   */\n      pop\n      pop\n        /* \"#utility.yul\":19827:20273   */\n    tag_393:\n        /* \"#utility.yul\":19737:20280   */\n      pop\n      pop\n      pop\n      jump\t// out\n        /* \"#utility.yul\":20286:20403   */\n    tag_186:\n        /* \"#utility.yul\":20340:20348   */\n      0x00\n        /* \"#utility.yul\":20390:20395   */\n      dup3\n        /* \"#utility.yul\":20384:20388   */\n      dup3\n        /* \"#utility.yul\":20380:20396   */\n      shr\n        /* \"#utility.yul\":20359:20396   */\n      swap1\n      pop\n        /* \"#utility.yul\":20286:20403   */\n      swap3\n      swap2\n      pop\n      pop\n      jump\t// out\n        /* \"#utility.yul\":20409:20578   */\n    tag_187:\n        /* \"#utility.yul\":20453:20459   */\n      0x00\n        /* \"#utility.yul\":20486:20537   */\n      tag_401\n        /* \"#utility.yul\":20534:20535   */\n      0x00\n        /* \"#utility.yul\":20530:20536   */\n      not\n        /* \"#utility.yul\":20522:20527   */\n      dup5\n        /* \"#utility.yul\":20519:20520   */\n      0x08\n        /* \"#utility.yul\":20515:20528   */\n      mul\n        /* \"#utility.yul\":20486:20537   */\n      tag_186\n      jump\t// in\n    tag_401:\n        /* \"#utility.yul\":20482:20538   */\n      not\n        /* \"#utility.yul\":20567:20571   */\n      dup1\n        /* \"#utility.yul\":20561:20565   */\n      dup4\n        /* \"#utility.yul\":20557:20572   */\n      and\n        /* \"#utility.yul\":20547:20572   */\n      swap2\n      pop\n        /* \"#utility.yul\":20460:20578   */\n      pop\n        /* \"#utility.yul\":20409:20578   */\n      swap3\n      swap2\n      pop\n      pop\n      jump\t// out\n        /* \"#utility.yul\":20583:20878   */\n    tag_188:\n        /* \"#utility.yul\":20659:20663   */\n      0x00\n        /* \"#utility.yul\":20805:20834   */\n      tag_403\n        /* \"#utility.yul\":20830:20833   */\n      dup4\n        /* \"#utility.yul\":20824:20828   */\n      dup4\n        /* \"#utility.yul\":20805:20834   */\n      tag_187\n      jump\t// in\n    tag_403:\n        /* \"#utility.yul\":20797:20834   */\n      swap2\n      pop\n        /* \"#utility.yul\":20867:20870   */\n      dup3\n        /* \"#utility.yul\":20864:20865   */\n      0x02\n        /* \"#utility.yul\":20860:20871   */\n      mul\n        /* \"#utility.yul\":20854:20858   */\n      dup3\n        /* \"#utility.yul\":20851:20872   */\n      or\n        /* \"#utility.yul\":20843:20872   */\n      swap1\n      pop\n        /* \"#utility.yul\":20583:20878   */\n      swap3\n      swap2\n      pop\n      pop\n      jump\t// out\n        /* \"#utility.yul\":20883:22278   */\n    tag_115:\n        /* \"#utility.yul\":21000:21037   */\n      tag_405\n        /* \"#utility.yul\":21033:21036   */\n      dup3\n        /* \"#utility.yul\":21000:21037   */\n      tag_123\n      jump\t// in\n    tag_405:\n        /* \"#utility.yul\":21102:21120   */\n      0xffffffffffffffff\n        /* \"#utility.yul\":21094:21100   */\n      dup2\n        /* \"#utility.yul\":21091:21121   */\n      gt\n        /* \"#utility.yul\":21088:21144   */\n      iszero\n      tag_406\n      jumpi\n        /* \"#utility.yul\":21124:21142   */\n      tag_407\n      tag_145\n      jump\t// in\n    tag_407:\n        /* \"#utility.yul\":21088:21144   */\n    tag_406:\n        /* \"#utility.yul\":21168:21206   */\n      tag_408\n        /* \"#utility.yul\":21200:21204   */\n      dup3\n        /* \"#utility.yul\":21194:21205   */\n      sload\n        /* \"#utility.yul\":21168:21206   */\n      tag_58\n      jump\t// in\n    tag_408:\n        /* \"#utility.yul\":21253:21320   */\n      tag_409\n        /* \"#utility.yul\":21313:21319   */\n      dup3\n        /* \"#utility.yul\":21305:21311   */\n      dup3\n        /* \"#utility.yul\":21299:21303   */\n      dup6\n        /* \"#utility.yul\":21253:21320   */\n      tag_185\n      jump\t// in\n    tag_409:\n        /* \"#utility.yul\":21347:21348   */\n      0x00\n        /* \"#utility.yul\":21371:21375   */\n      0x20\n        /* \"#utility.yul\":21358:21375   */\n      swap1\n      pop\n        /* \"#utility.yul\":21403:21405   */\n      0x1f\n        /* \"#utility.yul\":21395:21401   */\n      dup4\n        /* \"#utility.yul\":21392:21406   */\n      gt\n        /* \"#utility.yul\":21420:21421   */\n      0x01\n        /* \"#utility.yul\":21415:22033   */\n      dup2\n      eq\n      tag_411\n      jumpi\n        /* \"#utility.yul\":22077:22078   */\n      0x00\n        /* \"#utility.yul\":22094:22100   */\n      dup5\n        /* \"#utility.yul\":22091:22168   */\n      iszero\n      tag_412\n      jumpi\n        /* \"#utility.yul\":22143:22152   */\n      dup3\n        /* \"#utility.yul\":22138:22141   */\n      dup8\n        /* \"#utility.yul\":22134:22153   */\n      add\n        /* \"#utility.yul\":22128:22154   */\n      mload\n        /* \"#utility.yul\":22119:22154   */\n      swap1\n      pop\n        /* \"#utility.yul\":22091:22168   */\n    tag_412:\n        /* \"#utility.yul\":22194:22261   */\n      tag_413\n        /* \"#utility.yul\":22254:22260   */\n      dup6\n        /* \"#utility.yul\":22247:22252   */\n      dup3\n        /* \"#utility.yul\":22194:22261   */\n      tag_188\n      jump\t// in\n    tag_413:\n        /* \"#utility.yul\":22188:22192   */\n      dup7\n        /* \"#utility.yul\":22181:22262   */\n      sstore\n        /* \"#utility.yul\":22050:22272   */\n      pop\n        /* \"#utility.yul\":21385:22272   */\n      jump(tag_410)\n        /* \"#utility.yul\":21415:22033   */\n    tag_411:\n        /* \"#utility.yul\":21467:21471   */\n      0x1f\n        /* \"#utility.yul\":21463:21472   */\n      not\n        /* \"#utility.yul\":21455:21461   */\n      dup5\n        /* \"#utility.yul\":21451:21473   */\n      and\n        /* \"#utility.yul\":21501:21538   */\n      tag_414\n        /* \"#utility.yul\":21533:21537   */\n      dup7\n        /* \"#utility.yul\":21501:21538   */\n      tag_174\n      jump\t// in\n    tag_414:\n        /* \"#utility.yul\":21560:21561   */\n      0x00\n        /* \"#utility.yul\":21574:21782   */\n    tag_415:\n        /* \"#utility.yul\":21588:21595   */\n      dup3\n        /* \"#utility.yul\":21585:21586   */\n      dup2\n        /* \"#utility.yul\":21582:21596   */\n      lt\n        /* \"#utility.yul\":21574:21782   */\n      iszero\n      tag_417\n      jumpi\n        /* \"#utility.yul\":21667:21676   */\n      dup5\n        /* \"#utility.yul\":21662:21665   */\n      dup10\n        /* \"#utility.yul\":21658:21677   */\n      add\n        /* \"#utility.yul\":21652:21678   */\n      mload\n        /* \"#utility.yul\":21644:21650   */\n      dup3\n        /* \"#utility.yul\":21637:21679   */\n      sstore\n        /* \"#utility.yul\":21718:21719   */\n      0x01\n        /* \"#utility.yul\":21710:21716   */\n      dup3\n        /* \"#utility.yul\":21706:21720   */\n      add\n        /* \"#utility.yul\":21696:21720   */\n      swap2\n      pop\n        /* \"#utility.yul\":21765:21767   */\n      0x20\n        /* \"#utility.yul\":21754:21763   */\n      dup6\n        /* \"#utility.yul\":21750:21768   */\n      add\n        /* \"#utility.yul\":21737:21768   */\n      swap5\n      pop\n        /* \"#utility.yul\":21611:21615   */\n      0x20\n        /* \"#utility.yul\":21608:21609   */\n      dup2\n        /* \"#utility.yul\":21604:21616   */\n      add\n        /* \"#utility.yul\":21599:21616   */\n      swap1\n      pop\n        /* \"#utility.yul\":21574:21782   */\n      jump(tag_415)\n    tag_417:\n        /* \"#utility.yul\":21810:21816   */\n      dup7\n        /* \"#utility.yul\":21801:21808   */\n      dup4\n        /* \"#utility.yul\":21798:21817   */\n      lt\n        /* \"#utility.yul\":21795:21974   */\n      iszero\n      tag_418\n      jumpi\n        /* \"#utility.yul\":21868:21877   */\n      dup5\n        /* \"#utility.yul\":21863:21866   */\n      dup10\n        /* \"#utility.yul\":21859:21878   */\n      add\n        /* \"#utility.yul\":21853:21879   */\n      mload\n        /* \"#utility.yul\":21911:21959   */\n      tag_419\n        /* \"#utility.yul\":21953:21957   */\n      0x1f\n        /* \"#utility.yul\":21945:21951   */\n      dup10\n        /* \"#utility.yul\":21941:21958   */\n      and\n        /* \"#utility.yul\":21930:21939   */\n      dup3\n        /* \"#utility.yul\":21911:21959   */\n      tag_187\n      jump\t// in\n    tag_419:\n        /* \"#utility.yul\":21903:21909   */\n      dup4\n        /* \"#utility.yul\":21896:21960   */\n      sstore\n        /* \"#utility.yul\":21818:21974   */\n      pop\n        /* \"#utility.yul\":21795:21974   */\n    tag_418:\n        /* \"#utility.yul\":22020:22021   */\n      0x01\n        /* \"#utility.yul\":22016:22017   */\n      0x02\n        /* \"#utility.yul\":22008:22014   */\n      dup9\n        /* \"#utility.yul\":22004:22018   */\n      mul\n        /* \"#utility.yul\":22000:22022   */\n      add\n        /* \"#utility.yul\":21994:21998   */\n      dup9\n        /* \"#utility.yul\":21987:22023   */\n      sstore\n        /* \"#utility.yul\":21422:22033   */\n      pop\n      pop\n      pop\n        /* \"#utility.yul\":21385:22272   */\n    tag_410:\n      pop\n        /* \"#utility.yul\":20975:22278   */\n      pop\n      pop\n      pop\n        /* \"#utility.yul\":20883:22278   */\n      pop\n      pop\n      jump\t// out\n\n    auxdata: 0xa2646970667358221220efb16fd2e904eca04f82e449340e2d1774e5385fe103264dcda70b9135d805b064736f6c634300081f0033\n}\n",
				"bytecode": {
					"linkReferences": {},
					"object": "6080604052348015600e575f5ffd5b50335f5f6101000a81548173ffffffffffffffffffffffffffffffffffffffff021916908373ffffffffffffffffffffffffffffffffffffffff1602179055505f5f60146101000a81548160ff02191690836003811115606f57606e6078565b5b021790555060a5565b7f4e487b71000000000000000000000000000000000000000000000000000000005f52602160045260245ffd5b61143f806100b25f395ff3fe608060405234801561000f575f5ffd5b506004361061009c575f3560e01c806353ffdd281161006457806353ffdd281461015b57806368a25911146101795780637a84a562146101955780637e36d296146101b357806388871746146101d15761009c565b80630fd569e8146100a057806313d7966c146100be578063393d7119146100f1578063406a43241461010d5780634cd0295414610129575b5f5ffd5b6100a86101ed565b6040516100b591906108b4565b60405180910390f35b6100d860048036038101906100d39190610908565b6101f3565b6040516100e894939291906109bb565b60405180910390f35b61010b60048036038101906101069190610a28565b6102b4565b005b61012760048036038101906101229190610908565b61036e565b005b610143600480360381019061013e9190610aad565b6105ac565b60405161015293929190610af2565b60405180910390f35b6101636105ea565b6040516101709190610b9a565b60405180910390f35b610193600480360381019061018e9190610aad565b6105fc565b005b61019d6106e4565b6040516101aa91906108b4565b60405180910390f35b6101bb6106f0565b6040516101c89190610bc2565b60405180910390f35b6101eb60048036038101906101e69190610d31565b610714565b005b60035481565b60018181548110610202575f80fd5b905f5260205f2090600402015f91509050805f01549080600101805461022790610db8565b80601f016020809104026020016040519081016040528092919081815260200182805461025390610db8565b801561029e5780601f106102755761010080835404028352916020019161029e565b820191905f5260205f20905b81548152906001019060200180831161028157829003601f168201915b5050505050908060020154908060030154905084565b5f5f9054906101000a900473ffffffffffffffffffffffffffffffffffffffff1673ffffffffffffffffffffffffffffffffffffffff163373ffffffffffffffffffffffffffffffffffffffff1614610342576040517f08c379a000000000000000000000000000000000000000000000000000000000815260040161033990610e32565b60405180910390fd5b805f60146101000a81548160ff0219169083600381111561036657610365610b27565b5b021790555050565b5f60025f3373ffffffffffffffffffffffffffffffffffffffff1673ffffffffffffffffffffffffffffffffffffffff1681526020019081526020015f209050600260038111156103c2576103c1610b27565b5b5f60149054906101000a900460ff1660038111156103e3576103e2610b27565b5b14610423576040517f08c379a000000000000000000000000000000000000000000000000000000000815260040161041a90610e9a565b60405180910390fd5b805f015f9054906101000a900460ff16610472576040517f08c379a000000000000000000000000000000000000000000000000000000000815260040161046990610f02565b60405180910390fd5b805f0160019054906101000a900460ff16156104c3576040517f08c379a00000000000000000000000000000000000000000000000000000000081526004016104ba90610f6a565b60405180910390fd5b600180549050821061050a576040517f08c379a000000000000000000000000000000000000000000000000000000000815260040161050190610fd2565b60405180910390fd5b6001815f0160016101000a81548160ff02191690831515021790555033824260405160200161053b93929190611055565b6040516020818303038152906040528051906020012081600101819055506001828154811061056d5761056c611091565b5b905f5260205f2090600402016003015f81548092919061058c906110eb565b919050555060035f8154809291906105a3906110eb565b91905055505050565b6002602052805f5260405f205f91509050805f015f9054906101000a900460ff1690805f0160019054906101000a900460ff16908060010154905083565b5f60149054906101000a900460ff1681565b5f5f9054906101000a900473ffffffffffffffffffffffffffffffffffffffff1673ffffffffffffffffffffffffffffffffffffffff163373ffffffffffffffffffffffffffffffffffffffff161461068a576040517f08c379a000000000000000000000000000000000000000000000000000000000815260040161068190610e32565b60405180910390fd5b600160025f8373ffffffffffffffffffffffffffffffffffffffff1673ffffffffffffffffffffffffffffffffffffffff1681526020019081526020015f205f015f6101000a81548160ff02191690831515021790555050565b5f600180549050905090565b5f5f9054906101000a900473ffffffffffffffffffffffffffffffffffffffff1681565b5f5f9054906101000a900473ffffffffffffffffffffffffffffffffffffffff1673ffffffffffffffffffffffffffffffffffffffff163373ffffffffffffffffffffffffffffffffffffffff16146107a2576040517f08c379a000000000000000000000000000000000000000000000000000000000815260040161079990610e32565b60405180910390fd5b5f60038111156107b5576107b4610b27565b5b5f60149054906101000a900460ff1660038111156107d6576107d5610b27565b5b14610816576040517f08c379a000000000000000000000000000000000000000000000000000000000815260040161080d9061117c565b60405180910390fd5b6001604051806080016040528060018054905081526020018481526020018381526020015f815250908060018154018082558091505060019003905f5260205f2090600402015f909190919091505f820151815f01556020820151816001019081610881919061133a565b50604082015181600201556060820151816003015550505050565b5f819050919050565b6108ae8161089c565b82525050565b5f6020820190506108c75f8301846108a5565b92915050565b5f604051905090565b5f5ffd5b5f5ffd5b6108e78161089c565b81146108f1575f5ffd5b50565b5f81359050610902816108de565b92915050565b5f6020828403121561091d5761091c6108d6565b5b5f61092a848285016108f4565b91505092915050565b5f81519050919050565b5f82825260208201905092915050565b8281835e5f83830152505050565b5f601f19601f8301169050919050565b5f61097582610933565b61097f818561093d565b935061098f81856020860161094d565b6109988161095b565b840191505092915050565b5f819050919050565b6109b5816109a3565b82525050565b5f6080820190506109ce5f8301876108a5565b81810360208301526109e0818661096b565b90506109ef60408301856109ac565b6109fc60608301846108a5565b95945050505050565b60048110610a11575f5ffd5b50565b5f81359050610a2281610a05565b92915050565b5f60208284031215610a3d57610a3c6108d6565b5b5f610a4a84828501610a14565b91505092915050565b5f73ffffffffffffffffffffffffffffffffffffffff82169050919050565b5f610a7c82610a53565b9050919050565b610a8c81610a72565b8114610a96575f5ffd5b50565b5f81359050610aa781610a83565b92915050565b5f60208284031215610ac257610ac16108d6565b5b5f610acf84828501610a99565b91505092915050565b5f8115159050919050565b610aec81610ad8565b82525050565b5f606082019050610b055f830186610ae3565b610b126020830185610ae3565b610b1f60408301846109ac565b949350505050565b7f4e487b71000000000000000000000000000000000000000000000000000000005f52602160045260245ffd5b60048110610b6557610b64610b27565b5b50565b5f819050610b7582610b54565b919050565b5f610b8482610b68565b9050919050565b610b9481610b7a565b82525050565b5f602082019050610bad5f830184610b8b565b92915050565b610bbc81610a72565b82525050565b5f602082019050610bd55f830184610bb3565b92915050565b5f5ffd5b5f5ffd5b7f4e487b71000000000000000000000000000000000000000000000000000000005f52604160045260245ffd5b610c198261095b565b810181811067ffffffffffffffff82111715610c3857610c37610be3565b5b80604052505050565b5f610c4a6108cd565b9050610c568282610c10565b919050565b5f67ffffffffffffffff821115610c7557610c74610be3565b5b610c7e8261095b565b9050602081019050919050565b828183375f83830152505050565b5f610cab610ca684610c5b565b610c41565b905082815260208101848484011115610cc757610cc6610bdf565b5b610cd2848285610c8b565b509392505050565b5f82601f830112610cee57610ced610bdb565b5b8135610cfe848260208601610c99565b91505092915050565b610d10816109a3565b8114610d1a575f5ffd5b50565b5f81359050610d2b81610d07565b92915050565b5f5f60408385031215610d4757610d466108d6565b5b5f83013567ffffffffffffffff811115610d6457610d636108da565b5b610d7085828601610cda565b9250506020610d8185828601610d1d565b9150509250929050565b7f4e487b71000000000000000000000000000000000000000000000000000000005f52602260045260245ffd5b5f6002820490506001821680610dcf57607f821691505b602082108103610de257610de1610d8b565b5b50919050565b7f48616e79612050616e697469612079616e67206469697a696e6b616e000000005f82015250565b5f610e1c601c8361093d565b9150610e2782610de8565b602082019050919050565b5f6020820190508181035f830152610e4981610e10565b9050919050565b7f566f74696e672062656c756d20646962756b61000000000000000000000000005f82015250565b5f610e8460138361093d565b9150610e8f82610e50565b602082019050919050565b5f6020820190508181035f830152610eb181610e78565b9050919050565b7f416e646120746964616b207465727665726966696b61736900000000000000005f82015250565b5f610eec60188361093d565b9150610ef782610eb8565b602082019050919050565b5f6020820190508181035f830152610f1981610ee0565b9050919050565b7f416e6461207375646168206d656d696c696800000000000000000000000000005f82015250565b5f610f5460128361093d565b9150610f5f82610f20565b602082019050919050565b5f6020820190508181035f830152610f8181610f48565b9050919050565b7f4b616e646964617420746964616b2076616c69640000000000000000000000005f82015250565b5f610fbc60148361093d565b9150610fc782610f88565b602082019050919050565b5f6020820190508181035f830152610fe981610fb0565b9050919050565b5f8160601b9050919050565b5f61100682610ff0565b9050919050565b5f61101782610ffc565b9050919050565b61102f61102a82610a72565b61100d565b82525050565b5f819050919050565b61104f61104a8261089c565b611035565b82525050565b5f611060828661101e565b601482019150611070828561103e565b602082019150611080828461103e565b602082019150819050949350505050565b7f4e487b71000000000000000000000000000000000000000000000000000000005f52603260045260245ffd5b7f4e487b71000000000000000000000000000000000000000000000000000000005f52601160045260245ffd5b5f6110f58261089c565b91507fffffffffffffffffffffffffffffffffffffffffffffffffffffffffffffffff8203611127576111266110be565b5b600182019050919050565b7f48616e79612062697361206469206661736520534554555000000000000000005f82015250565b5f61116660188361093d565b915061117182611132565b602082019050919050565b5f6020820190508181035f8301526111938161115a565b9050919050565b5f819050815f5260205f209050919050565b5f6020601f8301049050919050565b5f82821b905092915050565b5f600883026111f67fffffffffffffffffffffffffffffffffffffffffffffffffffffffffffffffff826111bb565b61120086836111bb565b95508019841693508086168417925050509392505050565b5f819050919050565b5f61123b6112366112318461089c565b611218565b61089c565b9050919050565b5f819050919050565b61125483611221565b61126861126082611242565b8484546111c7565b825550505050565b5f5f905090565b61127f611270565b61128a81848461124b565b505050565b5b818110156112ad576112a25f82611277565b600181019050611290565b5050565b601f8211156112f2576112c38161119a565b6112cc846111ac565b810160208510156112db578190505b6112ef6112e7856111ac565b83018261128f565b50505b505050565b5f82821c905092915050565b5f6113125f19846008026112f7565b1980831691505092915050565b5f61132a8383611303565b9150826002028217905092915050565b61134382610933565b67ffffffffffffffff81111561135c5761135b610be3565b5b6113668254610db8565b6113718282856112b1565b5f60209050601f8311600181146113a2575f8415611390578287015190505b61139a858261131f565b865550611401565b601f1984166113b08661119a565b5f5b828110156113d7578489015182556001820191506020850194506020810190506113b2565b868310156113f457848901516113f0601f891682611303565b8355505b6001600288020188555050505b50505050505056fea2646970667358221220efb16fd2e904eca04f82e449340e2d1774e5385fe103264dcda70b9135d805b064736f6c634300081f0033",
					"opcodes": "PUSH1 0x80 PUSH1 0x40 MSTORE CALLVALUE DUP1 ISZERO PUSH1 0xE JUMPI PUSH0 PUSH0 REVERT JUMPDEST POP CALLER PUSH0 PUSH0 PUSH2 0x100 EXP DUP2 SLOAD DUP2 PUSH20 0xFFFFFFFFFFFFFFFFFFFFFFFFFFFFFFFFFFFFFFFF MUL NOT AND SWAP1 DUP4 PUSH20 0xFFFFFFFFFFFFFFFFFFFFFFFFFFFFFFFFFFFFFFFF AND MUL OR SWAP1 SSTORE POP PUSH0 PUSH0 PUSH1 0x14 PUSH2 0x100 EXP DUP2 SLOAD DUP2 PUSH1 0xFF MUL NOT AND SWAP1 DUP4 PUSH1 0x3 DUP2 GT ISZERO PUSH1 0x6F JUMPI PUSH1 0x6E PUSH1 0x78 JUMP JUMPDEST JUMPDEST MUL OR SWAP1 SSTORE POP PUSH1 0xA5 JUMP JUMPDEST PUSH32 0x4E487B7100000000000000000000000000000000000000000000000000000000 PUSH0 MSTORE PUSH1 0x21 PUSH1 0x4 MSTORE PUSH1 0x24 PUSH0 REVERT JUMPDEST PUSH2 0x143F DUP1 PUSH2 0xB2 PUSH0 CODECOPY PUSH0 RETURN INVALID PUSH1 0x80 PUSH1 0x40 MSTORE CALLVALUE DUP1 ISZERO PUSH2 0xF JUMPI PUSH0 PUSH0 REVERT JUMPDEST POP PUSH1 0x4 CALLDATASIZE LT PUSH2 0x9C JUMPI PUSH0 CALLDATALOAD PUSH1 0xE0 SHR DUP1 PUSH4 0x53FFDD28 GT PUSH2 0x64 JUMPI DUP1 PUSH4 0x53FFDD28 EQ PUSH2 0x15B JUMPI DUP1 PUSH4 0x68A25911 EQ PUSH2 0x179 JUMPI DUP1 PUSH4 0x7A84A562 EQ PUSH2 0x195 JUMPI DUP1 PUSH4 0x7E36D296 EQ PUSH2 0x1B3 JUMPI DUP1 PUSH4 0x88871746 EQ PUSH2 0x1D1 JUMPI PUSH2 0x9C JUMP JUMPDEST DUP1 PUSH4 0xFD569E8 EQ PUSH2 0xA0 JUMPI DUP1 PUSH4 0x13D7966C EQ PUSH2 0xBE JUMPI DUP1 PUSH4 0x393D7119 EQ PUSH2 0xF1 JUMPI DUP1 PUSH4 0x406A4324 EQ PUSH2 0x10D JUMPI DUP1 PUSH4 0x4CD02954 EQ PUSH2 0x129 JUMPI JUMPDEST PUSH0 PUSH0 REVERT JUMPDEST PUSH2 0xA8 PUSH2 0x1ED JUMP JUMPDEST PUSH1 0x40 MLOAD PUSH2 0xB5 SWAP2 SWAP1 PUSH2 0x8B4 JUMP JUMPDEST PUSH1 0x40 MLOAD DUP1 SWAP2 SUB SWAP1 RETURN JUMPDEST PUSH2 0xD8 PUSH1 0x4 DUP1 CALLDATASIZE SUB DUP2 ADD SWAP1 PUSH2 0xD3 SWAP2 SWAP1 PUSH2 0x908 JUMP JUMPDEST PUSH2 0x1F3 JUMP JUMPDEST PUSH1 0x40 MLOAD PUSH2 0xE8 SWAP5 SWAP4 SWAP3 SWAP2 SWAP1 PUSH2 0x9BB JUMP JUMPDEST PUSH1 0x40 MLOAD DUP1 SWAP2 SUB SWAP1 RETURN JUMPDEST PUSH2 0x10B PUSH1 0x4 DUP1 CALLDATASIZE SUB DUP2 ADD SWAP1 PUSH2 0x106 SWAP2 SWAP1 PUSH2 0xA28 JUMP JUMPDEST PUSH2 0x2B4 JUMP JUMPDEST STOP JUMPDEST PUSH2 0x127 PUSH1 0x4 DUP1 CALLDATASIZE SUB DUP2 ADD SWAP1 PUSH2 0x122 SWAP2 SWAP1 PUSH2 0x908 JUMP JUMPDEST PUSH2 0x36E JUMP JUMPDEST STOP JUMPDEST PUSH2 0x143 PUSH1 0x4 DUP1 CALLDATASIZE SUB DUP2 ADD SWAP1 PUSH2 0x13E SWAP2 SWAP1 PUSH2 0xAAD JUMP JUMPDEST PUSH2 0x5AC JUMP JUMPDEST PUSH1 0x40 MLOAD PUSH2 0x152 SWAP4 SWAP3 SWAP2 SWAP1 PUSH2 0xAF2 JUMP JUMPDEST PUSH1 0x40 MLOAD DUP1 SWAP2 SUB SWAP1 RETURN JUMPDEST PUSH2 0x163 PUSH2 0x5EA JUMP JUMPDEST PUSH1 0x40 MLOAD PUSH2 0x170 SWAP2 SWAP1 PUSH2 0xB9A JUMP JUMPDEST PUSH1 0x40 MLOAD DUP1 SWAP2 SUB SWAP1 RETURN JUMPDEST PUSH2 0x193 PUSH1 0x4 DUP1 CALLDATASIZE SUB DUP2 ADD SWAP1 PUSH2 0x18E SWAP2 SWAP1 PUSH2 0xAAD JUMP JUMPDEST PUSH2 0x5FC JUMP JUMPDEST STOP JUMPDEST PUSH2 0x19D PUSH2 0x6E4 JUMP JUMPDEST PUSH1 0x40 MLOAD PUSH2 0x1AA SWAP2 SWAP1 PUSH2 0x8B4 JUMP JUMPDEST PUSH1 0x40 MLOAD DUP1 SWAP2 SUB SWAP1 RETURN JUMPDEST PUSH2 0x1BB PUSH2 0x6F0 JUMP JUMPDEST PUSH1 0x40 MLOAD PUSH2 0x1C8 SWAP2 SWAP1 PUSH2 0xBC2 JUMP JUMPDEST PUSH1 0x40 MLOAD DUP1 SWAP2 SUB SWAP1 RETURN JUMPDEST PUSH2 0x1EB PUSH1 0x4 DUP1 CALLDATASIZE SUB DUP2 ADD SWAP1 PUSH2 0x1E6 SWAP2 SWAP1 PUSH2 0xD31 JUMP JUMPDEST PUSH2 0x714 JUMP JUMPDEST STOP JUMPDEST PUSH1 0x3 SLOAD DUP2 JUMP JUMPDEST PUSH1 0x1 DUP2 DUP2 SLOAD DUP2 LT PUSH2 0x202 JUMPI PUSH0 DUP1 REVERT JUMPDEST SWAP1 PUSH0 MSTORE PUSH1 0x20 PUSH0 KECCAK256 SWAP1 PUSH1 0x4 MUL ADD PUSH0 SWAP2 POP SWAP1 POP DUP1 PUSH0 ADD SLOAD SWAP1 DUP1 PUSH1 0x1 ADD DUP1 SLOAD PUSH2 0x227 SWAP1 PUSH2 0xDB8 JUMP JUMPDEST DUP1 PUSH1 0x1F ADD PUSH1 0x20 DUP1 SWAP2 DIV MUL PUSH1 0x20 ADD PUSH1 0x40 MLOAD SWAP1 DUP2 ADD PUSH1 0x40 MSTORE DUP1 SWAP3 SWAP2 SWAP1 DUP2 DUP2 MSTORE PUSH1 0x20 ADD DUP3 DUP1 SLOAD PUSH2 0x253 SWAP1 PUSH2 0xDB8 JUMP JUMPDEST DUP1 ISZERO PUSH2 0x29E JUMPI DUP1 PUSH1 0x1F LT PUSH2 0x275 JUMPI PUSH2 0x100 DUP1 DUP4 SLOAD DIV MUL DUP4 MSTORE SWAP2 PUSH1 0x20 ADD SWAP2 PUSH2 0x29E JUMP JUMPDEST DUP3 ADD SWAP2 SWAP1 PUSH0 MSTORE PUSH1 0x20 PUSH0 KECCAK256 SWAP1 JUMPDEST DUP2 SLOAD DUP2 MSTORE SWAP1 PUSH1 0x1 ADD SWAP1 PUSH1 0x20 ADD DUP1 DUP4 GT PUSH2 0x281 JUMPI DUP3 SWAP1 SUB PUSH1 0x1F AND DUP3 ADD SWAP2 JUMPDEST POP POP POP POP POP SWAP1 DUP1 PUSH1 0x2 ADD SLOAD SWAP1 DUP1 PUSH1 0x3 ADD SLOAD SWAP1 POP DUP5 JUMP JUMPDEST PUSH0 PUSH0 SWAP1 SLOAD SWAP1 PUSH2 0x100 EXP SWAP1 DIV PUSH20 0xFFFFFFFFFFFFFFFFFFFFFFFFFFFFFFFFFFFFFFFF AND PUSH20 0xFFFFFFFFFFFFFFFFFFFFFFFFFFFFFFFFFFFFFFFF AND CALLER PUSH20 0xFFFFFFFFFFFFFFFFFFFFFFFFFFFFFFFFFFFFFFFF AND EQ PUSH2 0x342 JUMPI PUSH1 0x40 MLOAD PUSH32 0x8C379A000000000000000000000000000000000000000000000000000000000 DUP2 MSTORE PUSH1 0x4 ADD PUSH2 0x339 SWAP1 PUSH2 0xE32 JUMP JUMPDEST PUSH1 0x40 MLOAD DUP1 SWAP2 SUB SWAP1 REVERT JUMPDEST DUP1 PUSH0 PUSH1 0x14 PUSH2 0x100 EXP DUP2 SLOAD DUP2 PUSH1 0xFF MUL NOT AND SWAP1 DUP4 PUSH1 0x3 DUP2 GT ISZERO PUSH2 0x366 JUMPI PUSH2 0x365 PUSH2 0xB27 JUMP JUMPDEST JUMPDEST MUL OR SWAP1 SSTORE POP POP JUMP JUMPDEST PUSH0 PUSH1 0x2 PUSH0 CALLER PUSH20 0xFFFFFFFFFFFFFFFFFFFFFFFFFFFFFFFFFFFFFFFF AND PUSH20 0xFFFFFFFFFFFFFFFFFFFFFFFFFFFFFFFFFFFFFFFF AND DUP2 MSTORE PUSH1 0x20 ADD SWAP1 DUP2 MSTORE PUSH1 0x20 ADD PUSH0 KECCAK256 SWAP1 POP PUSH1 0x2 PUSH1 0x3 DUP2 GT ISZERO PUSH2 0x3C2 JUMPI PUSH2 0x3C1 PUSH2 0xB27 JUMP JUMPDEST JUMPDEST PUSH0 PUSH1 0x14 SWAP1 SLOAD SWAP1 PUSH2 0x100 EXP SWAP1 DIV PUSH1 0xFF AND PUSH1 0x3 DUP2 GT ISZERO PUSH2 0x3E3 JUMPI PUSH2 0x3E2 PUSH2 0xB27 JUMP JUMPDEST JUMPDEST EQ PUSH2 0x423 JUMPI PUSH1 0x40 MLOAD PUSH32 0x8C379A000000000000000000000000000000000000000000000000000000000 DUP2 MSTORE PUSH1 0x4 ADD PUSH2 0x41A SWAP1 PUSH2 0xE9A JUMP JUMPDEST PUSH1 0x40 MLOAD DUP1 SWAP2 SUB SWAP1 REVERT JUMPDEST DUP1 PUSH0 ADD PUSH0 SWAP1 SLOAD SWAP1 PUSH2 0x100 EXP SWAP1 DIV PUSH1 0xFF AND PUSH2 0x472 JUMPI PUSH1 0x40 MLOAD PUSH32 0x8C379A000000000000000000000000000000000000000000000000000000000 DUP2 MSTORE PUSH1 0x4 ADD PUSH2 0x469 SWAP1 PUSH2 0xF02 JUMP JUMPDEST PUSH1 0x40 MLOAD DUP1 SWAP2 SUB SWAP1 REVERT JUMPDEST DUP1 PUSH0 ADD PUSH1 0x1 SWAP1 SLOAD SWAP1 PUSH2 0x100 EXP SWAP1 DIV PUSH1 0xFF AND ISZERO PUSH2 0x4C3 JUMPI PUSH1 0x40 MLOAD PUSH32 0x8C379A000000000000000000000000000000000000000000000000000000000 DUP2 MSTORE PUSH1 0x4 ADD PUSH2 0x4BA SWAP1 PUSH2 0xF6A JUMP JUMPDEST PUSH1 0x40 MLOAD DUP1 SWAP2 SUB SWAP1 REVERT JUMPDEST PUSH1 0x1 DUP1 SLOAD SWAP1 POP DUP3 LT PUSH2 0x50A JUMPI PUSH1 0x40 MLOAD PUSH32 0x8C379A000000000000000000000000000000000000000000000000000000000 DUP2 MSTORE PUSH1 0x4 ADD PUSH2 0x501 SWAP1 PUSH2 0xFD2 JUMP JUMPDEST PUSH1 0x40 MLOAD DUP1 SWAP2 SUB SWAP1 REVERT JUMPDEST PUSH1 0x1 DUP2 PUSH0 ADD PUSH1 0x1 PUSH2 0x100 EXP DUP2 SLOAD DUP2 PUSH1 0xFF MUL NOT AND SWAP1 DUP4 ISZERO ISZERO MUL OR SWAP1 SSTORE POP CALLER DUP3 TIMESTAMP PUSH1 0x40 MLOAD PUSH1 0x20 ADD PUSH2 0x53B SWAP4 SWAP3 SWAP2 SWAP1 PUSH2 0x1055 JUMP JUMPDEST PUSH1 0x40 MLOAD PUSH1 0x20 DUP2 DUP4 SUB SUB DUP2 MSTORE SWAP1 PUSH1 0x40 MSTORE DUP1 MLOAD SWAP1 PUSH1 0x20 ADD KECCAK256 DUP2 PUSH1 0x1 ADD DUP2 SWAP1 SSTORE POP PUSH1 0x1 DUP3 DUP2 SLOAD DUP2 LT PUSH2 0x56D JUMPI PUSH2 0x56C PUSH2 0x1091 JUMP JUMPDEST JUMPDEST SWAP1 PUSH0 MSTORE PUSH1 0x20 PUSH0 KECCAK256 SWAP1 PUSH1 0x4 MUL ADD PUSH1 0x3 ADD PUSH0 DUP2 SLOAD DUP1 SWAP3 SWAP2 SWAP1 PUSH2 0x58C SWAP1 PUSH2 0x10EB JUMP JUMPDEST SWAP2 SWAP1 POP SSTORE POP PUSH1 0x3 PUSH0 DUP2 SLOAD DUP1 SWAP3 SWAP2 SWAP1 PUSH2 0x5A3 SWAP1 PUSH2 0x10EB JUMP JUMPDEST SWAP2 SWAP1 POP SSTORE POP POP POP JUMP JUMPDEST PUSH1 0x2 PUSH1 0x20 MSTORE DUP1 PUSH0 MSTORE PUSH1 0x40 PUSH0 KECCAK256 PUSH0 SWAP2 POP SWAP1 POP DUP1 PUSH0 ADD PUSH0 SWAP1 SLOAD SWAP1 PUSH2 0x100 EXP SWAP1 DIV PUSH1 0xFF AND SWAP1 DUP1 PUSH0 ADD PUSH1 0x1 SWAP1 SLOAD SWAP1 PUSH2 0x100 EXP SWAP1 DIV PUSH1 0xFF AND SWAP1 DUP1 PUSH1 0x1 ADD SLOAD SWAP1 POP DUP4 JUMP JUMPDEST PUSH0 PUSH1 0x14 SWAP1 SLOAD SWAP1 PUSH2 0x100 EXP SWAP1 DIV PUSH1 0xFF AND DUP2 JUMP JUMPDEST PUSH0 PUSH0 SWAP1 SLOAD SWAP1 PUSH2 0x100 EXP SWAP1 DIV PUSH20 0xFFFFFFFFFFFFFFFFFFFFFFFFFFFFFFFFFFFFFFFF AND PUSH20 0xFFFFFFFFFFFFFFFFFFFFFFFFFFFFFFFFFFFFFFFF AND CALLER PUSH20 0xFFFFFFFFFFFFFFFFFFFFFFFFFFFFFFFFFFFFFFFF AND EQ PUSH2 0x68A JUMPI PUSH1 0x40 MLOAD PUSH32 0x8C379A000000000000000000000000000000000000000000000000000000000 DUP2 MSTORE PUSH1 0x4 ADD PUSH2 0x681 SWAP1 PUSH2 0xE32 JUMP JUMPDEST PUSH1 0x40 MLOAD DUP1 SWAP2 SUB SWAP1 REVERT JUMPDEST PUSH1 0x1 PUSH1 0x2 PUSH0 DUP4 PUSH20 0xFFFFFFFFFFFFFFFFFFFFFFFFFFFFFFFFFFFFFFFF AND PUSH20 0xFFFFFFFFFFFFFFFFFFFFFFFFFFFFFFFFFFFFFFFF AND DUP2 MSTORE PUSH1 0x20 ADD SWAP1 DUP2 MSTORE PUSH1 0x20 ADD PUSH0 KECCAK256 PUSH0 ADD PUSH0 PUSH2 0x100 EXP DUP2 SLOAD DUP2 PUSH1 0xFF MUL NOT AND SWAP1 DUP4 ISZERO ISZERO MUL OR SWAP1 SSTORE POP POP JUMP JUMPDEST PUSH0 PUSH1 0x1 DUP1 SLOAD SWAP1 POP SWAP1 POP SWAP1 JUMP JUMPDEST PUSH0 PUSH0 SWAP1 SLOAD SWAP1 PUSH2 0x100 EXP SWAP1 DIV PUSH20 0xFFFFFFFFFFFFFFFFFFFFFFFFFFFFFFFFFFFFFFFF AND DUP2 JUMP JUMPDEST PUSH0 PUSH0 SWAP1 SLOAD SWAP1 PUSH2 0x100 EXP SWAP1 DIV PUSH20 0xFFFFFFFFFFFFFFFFFFFFFFFFFFFFFFFFFFFFFFFF AND PUSH20 0xFFFFFFFFFFFFFFFFFFFFFFFFFFFFFFFFFFFFFFFF AND CALLER PUSH20 0xFFFFFFFFFFFFFFFFFFFFFFFFFFFFFFFFFFFFFFFF AND EQ PUSH2 0x7A2 JUMPI PUSH1 0x40 MLOAD PUSH32 0x8C379A000000000000000000000000000000000000000000000000000000000 DUP2 MSTORE PUSH1 0x4 ADD PUSH2 0x799 SWAP1 PUSH2 0xE32 JUMP JUMPDEST PUSH1 0x40 MLOAD DUP1 SWAP2 SUB SWAP1 REVERT JUMPDEST PUSH0 PUSH1 0x3 DUP2 GT ISZERO PUSH2 0x7B5 JUMPI PUSH2 0x7B4 PUSH2 0xB27 JUMP JUMPDEST JUMPDEST PUSH0 PUSH1 0x14 SWAP1 SLOAD SWAP1 PUSH2 0x100 EXP SWAP1 DIV PUSH1 0xFF AND PUSH1 0x3 DUP2 GT ISZERO PUSH2 0x7D6 JUMPI PUSH2 0x7D5 PUSH2 0xB27 JUMP JUMPDEST JUMPDEST EQ PUSH2 0x816 JUMPI PUSH1 0x40 MLOAD PUSH32 0x8C379A000000000000000000000000000000000000000000000000000000000 DUP2 MSTORE PUSH1 0x4 ADD PUSH2 0x80D SWAP1 PUSH2 0x117C JUMP JUMPDEST PUSH1 0x40 MLOAD DUP1 SWAP2 SUB SWAP1 REVERT JUMPDEST PUSH1 0x1 PUSH1 0x40 MLOAD DUP1 PUSH1 0x80 ADD PUSH1 0x40 MSTORE DUP1 PUSH1 0x1 DUP1 SLOAD SWAP1 POP DUP2 MSTORE PUSH1 0x20 ADD DUP5 DUP2 MSTORE PUSH1 0x20 ADD DUP4 DUP2 MSTORE PUSH1 0x20 ADD PUSH0 DUP2 MSTORE POP SWAP1 DUP1 PUSH1 0x1 DUP2 SLOAD ADD DUP1 DUP3 SSTORE DUP1 SWAP2 POP POP PUSH1 0x1 SWAP1 SUB SWAP1 PUSH0 MSTORE PUSH1 0x20 PUSH0 KECCAK256 SWAP1 PUSH1 0x4 MUL ADD PUSH0 SWAP1 SWAP2 SWAP1 SWAP2 SWAP1 SWAP2 POP PUSH0 DUP3 ADD MLOAD DUP2 PUSH0 ADD SSTORE PUSH1 0x20 DUP3 ADD MLOAD DUP2 PUSH1 0x1 ADD SWAP1 DUP2 PUSH2 0x881 SWAP2 SWAP1 PUSH2 0x133A JUMP JUMPDEST POP PUSH1 0x40 DUP3 ADD MLOAD DUP2 PUSH1 0x2 ADD SSTORE PUSH1 0x60 DUP3 ADD MLOAD DUP2 PUSH1 0x3 ADD SSTORE POP POP POP POP JUMP JUMPDEST PUSH0 DUP2 SWAP1 POP SWAP2 SWAP1 POP JUMP JUMPDEST PUSH2 0x8AE DUP2 PUSH2 0x89C JUMP JUMPDEST DUP3 MSTORE POP POP JUMP JUMPDEST PUSH0 PUSH1 0x20 DUP3 ADD SWAP1 POP PUSH2 0x8C7 PUSH0 DUP4 ADD DUP5 PUSH2 0x8A5 JUMP JUMPDEST SWAP3 SWAP2 POP POP JUMP JUMPDEST PUSH0 PUSH1 0x40 MLOAD SWAP1 POP SWAP1 JUMP JUMPDEST PUSH0 PUSH0 REVERT JUMPDEST PUSH0 PUSH0 REVERT JUMPDEST PUSH2 0x8E7 DUP2 PUSH2 0x89C JUMP JUMPDEST DUP2 EQ PUSH2 0x8F1 JUMPI PUSH0 PUSH0 REVERT JUMPDEST POP JUMP JUMPDEST PUSH0 DUP2 CALLDATALOAD SWAP1 POP PUSH2 0x902 DUP2 PUSH2 0x8DE JUMP JUMPDEST SWAP3 SWAP2 POP POP JUMP JUMPDEST PUSH0 PUSH1 0x20 DUP3 DUP5 SUB SLT ISZERO PUSH2 0x91D JUMPI PUSH2 0x91C PUSH2 0x8D6 JUMP JUMPDEST JUMPDEST PUSH0 PUSH2 0x92A DUP5 DUP3 DUP6 ADD PUSH2 0x8F4 JUMP JUMPDEST SWAP2 POP POP SWAP3 SWAP2 POP POP JUMP JUMPDEST PUSH0 DUP2 MLOAD SWAP1 POP SWAP2 SWAP1 POP JUMP JUMPDEST PUSH0 DUP3 DUP3 MSTORE PUSH1 0x20 DUP3 ADD SWAP1 POP SWAP3 SWAP2 POP POP JUMP JUMPDEST DUP3 DUP2 DUP4 MCOPY PUSH0 DUP4 DUP4 ADD MSTORE POP POP POP JUMP JUMPDEST PUSH0 PUSH1 0x1F NOT PUSH1 0x1F DUP4 ADD AND SWAP1 POP SWAP2 SWAP1 POP JUMP JUMPDEST PUSH0 PUSH2 0x975 DUP3 PUSH2 0x933 JUMP JUMPDEST PUSH2 0x97F DUP2 DUP6 PUSH2 0x93D JUMP JUMPDEST SWAP4 POP PUSH2 0x98F DUP2 DUP6 PUSH1 0x20 DUP7 ADD PUSH2 0x94D JUMP JUMPDEST PUSH2 0x998 DUP2 PUSH2 0x95B JUMP JUMPDEST DUP5 ADD SWAP2 POP POP SWAP3 SWAP2 POP POP JUMP JUMPDEST PUSH0 DUP2 SWAP1 POP SWAP2 SWAP1 POP JUMP JUMPDEST PUSH2 0x9B5 DUP2 PUSH2 0x9A3 JUMP JUMPDEST DUP3 MSTORE POP POP JUMP JUMPDEST PUSH0 PUSH1 0x80 DUP3 ADD SWAP1 POP PUSH2 0x9CE PUSH0 DUP4 ADD DUP8 PUSH2 0x8A5 JUMP JUMPDEST DUP2 DUP2 SUB PUSH1 0x20 DUP4 ADD MSTORE PUSH2 0x9E0 DUP2 DUP7 PUSH2 0x96B JUMP JUMPDEST SWAP1 POP PUSH2 0x9EF PUSH1 0x40 DUP4 ADD DUP6 PUSH2 0x9AC JUMP JUMPDEST PUSH2 0x9FC PUSH1 0x60 DUP4 ADD DUP5 PUSH2 0x8A5 JUMP JUMPDEST SWAP6 SWAP5 POP POP POP POP POP JUMP JUMPDEST PUSH1 0x4 DUP2 LT PUSH2 0xA11 JUMPI PUSH0 PUSH0 REVERT JUMPDEST POP JUMP JUMPDEST PUSH0 DUP2 CALLDATALOAD SWAP1 POP PUSH2 0xA22 DUP2 PUSH2 0xA05 JUMP JUMPDEST SWAP3 SWAP2 POP POP JUMP JUMPDEST PUSH0 PUSH1 0x20 DUP3 DUP5 SUB SLT ISZERO PUSH2 0xA3D JUMPI PUSH2 0xA3C PUSH2 0x8D6 JUMP JUMPDEST JUMPDEST PUSH0 PUSH2 0xA4A DUP5 DUP3 DUP6 ADD PUSH2 0xA14 JUMP JUMPDEST SWAP2 POP POP SWAP3 SWAP2 POP POP JUMP JUMPDEST PUSH0 PUSH20 0xFFFFFFFFFFFFFFFFFFFFFFFFFFFFFFFFFFFFFFFF DUP3 AND SWAP1 POP SWAP2 SWAP1 POP JUMP JUMPDEST PUSH0 PUSH2 0xA7C DUP3 PUSH2 0xA53 JUMP JUMPDEST SWAP1 POP SWAP2 SWAP1 POP JUMP JUMPDEST PUSH2 0xA8C DUP2 PUSH2 0xA72 JUMP JUMPDEST DUP2 EQ PUSH2 0xA96 JUMPI PUSH0 PUSH0 REVERT JUMPDEST POP JUMP JUMPDEST PUSH0 DUP2 CALLDATALOAD SWAP1 POP PUSH2 0xAA7 DUP2 PUSH2 0xA83 JUMP JUMPDEST SWAP3 SWAP2 POP POP JUMP JUMPDEST PUSH0 PUSH1 0x20 DUP3 DUP5 SUB SLT ISZERO PUSH2 0xAC2 JUMPI PUSH2 0xAC1 PUSH2 0x8D6 JUMP JUMPDEST JUMPDEST PUSH0 PUSH2 0xACF DUP5 DUP3 DUP6 ADD PUSH2 0xA99 JUMP JUMPDEST SWAP2 POP POP SWAP3 SWAP2 POP POP JUMP JUMPDEST PUSH0 DUP2 ISZERO ISZERO SWAP1 POP SWAP2 SWAP1 POP JUMP JUMPDEST PUSH2 0xAEC DUP2 PUSH2 0xAD8 JUMP JUMPDEST DUP3 MSTORE POP POP JUMP JUMPDEST PUSH0 PUSH1 0x60 DUP3 ADD SWAP1 POP PUSH2 0xB05 PUSH0 DUP4 ADD DUP7 PUSH2 0xAE3 JUMP JUMPDEST PUSH2 0xB12 PUSH1 0x20 DUP4 ADD DUP6 PUSH2 0xAE3 JUMP JUMPDEST PUSH2 0xB1F PUSH1 0x40 DUP4 ADD DUP5 PUSH2 0x9AC JUMP JUMPDEST SWAP5 SWAP4 POP POP POP POP JUMP JUMPDEST PUSH32 0x4E487B7100000000000000000000000000000000000000000000000000000000 PUSH0 MSTORE PUSH1 0x21 PUSH1 0x4 MSTORE PUSH1 0x24 PUSH0 REVERT JUMPDEST PUSH1 0x4 DUP2 LT PUSH2 0xB65 JUMPI PUSH2 0xB64 PUSH2 0xB27 JUMP JUMPDEST JUMPDEST POP JUMP JUMPDEST PUSH0 DUP2 SWAP1 POP PUSH2 0xB75 DUP3 PUSH2 0xB54 JUMP JUMPDEST SWAP2 SWAP1 POP JUMP JUMPDEST PUSH0 PUSH2 0xB84 DUP3 PUSH2 0xB68 JUMP JUMPDEST SWAP1 POP SWAP2 SWAP1 POP JUMP JUMPDEST PUSH2 0xB94 DUP2 PUSH2 0xB7A JUMP JUMPDEST DUP3 MSTORE POP POP JUMP JUMPDEST PUSH0 PUSH1 0x20 DUP3 ADD SWAP1 POP PUSH2 0xBAD PUSH0 DUP4 ADD DUP5 PUSH2 0xB8B JUMP JUMPDEST SWAP3 SWAP2 POP POP JUMP JUMPDEST PUSH2 0xBBC DUP2 PUSH2 0xA72 JUMP JUMPDEST DUP3 MSTORE POP POP JUMP JUMPDEST PUSH0 PUSH1 0x20 DUP3 ADD SWAP1 POP PUSH2 0xBD5 PUSH0 DUP4 ADD DUP5 PUSH2 0xBB3 JUMP JUMPDEST SWAP3 SWAP2 POP POP JUMP JUMPDEST PUSH0 PUSH0 REVERT JUMPDEST PUSH0 PUSH0 REVERT JUMPDEST PUSH32 0x4E487B7100000000000000000000000000000000000000000000000000000000 PUSH0 MSTORE PUSH1 0x41 PUSH1 0x4 MSTORE PUSH1 0x24 PUSH0 REVERT JUMPDEST PUSH2 0xC19 DUP3 PUSH2 0x95B JUMP JUMPDEST DUP2 ADD DUP2 DUP2 LT PUSH8 0xFFFFFFFFFFFFFFFF DUP3 GT OR ISZERO PUSH2 0xC38 JUMPI PUSH2 0xC37 PUSH2 0xBE3 JUMP JUMPDEST JUMPDEST DUP1 PUSH1 0x40 MSTORE POP POP POP JUMP JUMPDEST PUSH0 PUSH2 0xC4A PUSH2 0x8CD JUMP JUMPDEST SWAP1 POP PUSH2 0xC56 DUP3 DUP3 PUSH2 0xC10 JUMP JUMPDEST SWAP2 SWAP1 POP JUMP JUMPDEST PUSH0 PUSH8 0xFFFFFFFFFFFFFFFF DUP3 GT ISZERO PUSH2 0xC75 JUMPI PUSH2 0xC74 PUSH2 0xBE3 JUMP JUMPDEST JUMPDEST PUSH2 0xC7E DUP3 PUSH2 0x95B JUMP JUMPDEST SWAP1 POP PUSH1 0x20 DUP2 ADD SWAP1 POP SWAP2 SWAP1 POP JUMP JUMPDEST DUP3 DUP2 DUP4 CALLDATACOPY PUSH0 DUP4 DUP4 ADD MSTORE POP POP POP JUMP JUMPDEST PUSH0 PUSH2 0xCAB PUSH2 0xCA6 DUP5 PUSH2 0xC5B JUMP JUMPDEST PUSH2 0xC41 JUMP JUMPDEST SWAP1 POP DUP3 DUP2 MSTORE PUSH1 0x20 DUP2 ADD DUP5 DUP5 DUP5 ADD GT ISZERO PUSH2 0xCC7 JUMPI PUSH2 0xCC6 PUSH2 0xBDF JUMP JUMPDEST JUMPDEST PUSH2 0xCD2 DUP5 DUP3 DUP6 PUSH2 0xC8B JUMP JUMPDEST POP SWAP4 SWAP3 POP POP POP JUMP JUMPDEST PUSH0 DUP3 PUSH1 0x1F DUP4 ADD SLT PUSH2 0xCEE JUMPI PUSH2 0xCED PUSH2 0xBDB JUMP JUMPDEST JUMPDEST DUP2 CALLDATALOAD PUSH2 0xCFE DUP5 DUP3 PUSH1 0x20 DUP7 ADD PUSH2 0xC99 JUMP JUMPDEST SWAP2 POP POP SWAP3 SWAP2 POP POP JUMP JUMPDEST PUSH2 0xD10 DUP2 PUSH2 0x9A3 JUMP JUMPDEST DUP2 EQ PUSH2 0xD1A JUMPI PUSH0 PUSH0 REVERT JUMPDEST POP JUMP JUMPDEST PUSH0 DUP2 CALLDATALOAD SWAP1 POP PUSH2 0xD2B DUP2 PUSH2 0xD07 JUMP JUMPDEST SWAP3 SWAP2 POP POP JUMP JUMPDEST PUSH0 PUSH0 PUSH1 0x40 DUP4 DUP6 SUB SLT ISZERO PUSH2 0xD47 JUMPI PUSH2 0xD46 PUSH2 0x8D6 JUMP JUMPDEST JUMPDEST PUSH0 DUP4 ADD CALLDATALOAD PUSH8 0xFFFFFFFFFFFFFFFF DUP2 GT ISZERO PUSH2 0xD64 JUMPI PUSH2 0xD63 PUSH2 0x8DA JUMP JUMPDEST JUMPDEST PUSH2 0xD70 DUP6 DUP3 DUP7 ADD PUSH2 0xCDA JUMP JUMPDEST SWAP3 POP POP PUSH1 0x20 PUSH2 0xD81 DUP6 DUP3 DUP7 ADD PUSH2 0xD1D JUMP JUMPDEST SWAP2 POP POP SWAP3 POP SWAP3 SWAP1 POP JUMP JUMPDEST PUSH32 0x4E487B7100000000000000000000000000000000000000000000000000000000 PUSH0 MSTORE PUSH1 0x22 PUSH1 0x4 MSTORE PUSH1 0x24 PUSH0 REVERT JUMPDEST PUSH0 PUSH1 0x2 DUP3 DIV SWAP1 POP PUSH1 0x1 DUP3 AND DUP1 PUSH2 0xDCF JUMPI PUSH1 0x7F DUP3 AND SWAP2 POP JUMPDEST PUSH1 0x20 DUP3 LT DUP2 SUB PUSH2 0xDE2 JUMPI PUSH2 0xDE1 PUSH2 0xD8B JUMP JUMPDEST JUMPDEST POP SWAP2 SWAP1 POP JUMP JUMPDEST PUSH32 0x48616E79612050616E697469612079616E67206469697A696E6B616E00000000 PUSH0 DUP3 ADD MSTORE POP JUMP JUMPDEST PUSH0 PUSH2 0xE1C PUSH1 0x1C DUP4 PUSH2 0x93D JUMP JUMPDEST SWAP2 POP PUSH2 0xE27 DUP3 PUSH2 0xDE8 JUMP JUMPDEST PUSH1 0x20 DUP3 ADD SWAP1 POP SWAP2 SWAP1 POP JUMP JUMPDEST PUSH0 PUSH1 0x20 DUP3 ADD SWAP1 POP DUP2 DUP2 SUB PUSH0 DUP4 ADD MSTORE PUSH2 0xE49 DUP2 PUSH2 0xE10 JUMP JUMPDEST SWAP1 POP SWAP2 SWAP1 POP JUMP JUMPDEST PUSH32 0x566F74696E672062656C756D20646962756B6100000000000000000000000000 PUSH0 DUP3 ADD MSTORE POP JUMP JUMPDEST PUSH0 PUSH2 0xE84 PUSH1 0x13 DUP4 PUSH2 0x93D JUMP JUMPDEST SWAP2 POP PUSH2 0xE8F DUP3 PUSH2 0xE50 JUMP JUMPDEST PUSH1 0x20 DUP3 ADD SWAP1 POP SWAP2 SWAP1 POP JUMP JUMPDEST PUSH0 PUSH1 0x20 DUP3 ADD SWAP1 POP DUP2 DUP2 SUB PUSH0 DUP4 ADD MSTORE PUSH2 0xEB1 DUP2 PUSH2 0xE78 JUMP JUMPDEST SWAP1 POP SWAP2 SWAP1 POP JUMP JUMPDEST PUSH32 0x416E646120746964616B207465727665726966696B6173690000000000000000 PUSH0 DUP3 ADD MSTORE POP JUMP JUMPDEST PUSH0 PUSH2 0xEEC PUSH1 0x18 DUP4 PUSH2 0x93D JUMP JUMPDEST SWAP2 POP PUSH2 0xEF7 DUP3 PUSH2 0xEB8 JUMP JUMPDEST PUSH1 0x20 DUP3 ADD SWAP1 POP SWAP2 SWAP1 POP JUMP JUMPDEST PUSH0 PUSH1 0x20 DUP3 ADD SWAP1 POP DUP2 DUP2 SUB PUSH0 DUP4 ADD MSTORE PUSH2 0xF19 DUP2 PUSH2 0xEE0 JUMP JUMPDEST SWAP1 POP SWAP2 SWAP1 POP JUMP JUMPDEST PUSH32 0x416E6461207375646168206D656D696C69680000000000000000000000000000 PUSH0 DUP3 ADD MSTORE POP JUMP JUMPDEST PUSH0 PUSH2 0xF54 PUSH1 0x12 DUP4 PUSH2 0x93D JUMP JUMPDEST SWAP2 POP PUSH2 0xF5F DUP3 PUSH2 0xF20 JUMP JUMPDEST PUSH1 0x20 DUP3 ADD SWAP1 POP SWAP2 SWAP1 POP JUMP JUMPDEST PUSH0 PUSH1 0x20 DUP3 ADD SWAP1 POP DUP2 DUP2 SUB PUSH0 DUP4 ADD MSTORE PUSH2 0xF81 DUP2 PUSH2 0xF48 JUMP JUMPDEST SWAP1 POP SWAP2 SWAP1 POP JUMP JUMPDEST PUSH32 0x4B616E646964617420746964616B2076616C6964000000000000000000000000 PUSH0 DUP3 ADD MSTORE POP JUMP JUMPDEST PUSH0 PUSH2 0xFBC PUSH1 0x14 DUP4 PUSH2 0x93D JUMP JUMPDEST SWAP2 POP PUSH2 0xFC7 DUP3 PUSH2 0xF88 JUMP JUMPDEST PUSH1 0x20 DUP3 ADD SWAP1 POP SWAP2 SWAP1 POP JUMP JUMPDEST PUSH0 PUSH1 0x20 DUP3 ADD SWAP1 POP DUP2 DUP2 SUB PUSH0 DUP4 ADD MSTORE PUSH2 0xFE9 DUP2 PUSH2 0xFB0 JUMP JUMPDEST SWAP1 POP SWAP2 SWAP1 POP JUMP JUMPDEST PUSH0 DUP2 PUSH1 0x60 SHL SWAP1 POP SWAP2 SWAP1 POP JUMP JUMPDEST PUSH0 PUSH2 0x1006 DUP3 PUSH2 0xFF0 JUMP JUMPDEST SWAP1 POP SWAP2 SWAP1 POP JUMP JUMPDEST PUSH0 PUSH2 0x1017 DUP3 PUSH2 0xFFC JUMP JUMPDEST SWAP1 POP SWAP2 SWAP1 POP JUMP JUMPDEST PUSH2 0x102F PUSH2 0x102A DUP3 PUSH2 0xA72 JUMP JUMPDEST PUSH2 0x100D JUMP JUMPDEST DUP3 MSTORE POP POP JUMP JUMPDEST PUSH0 DUP2 SWAP1 POP SWAP2 SWAP1 POP JUMP JUMPDEST PUSH2 0x104F PUSH2 0x104A DUP3 PUSH2 0x89C JUMP JUMPDEST PUSH2 0x1035 JUMP JUMPDEST DUP3 MSTORE POP POP JUMP JUMPDEST PUSH0 PUSH2 0x1060 DUP3 DUP7 PUSH2 0x101E JUMP JUMPDEST PUSH1 0x14 DUP3 ADD SWAP2 POP PUSH2 0x1070 DUP3 DUP6 PUSH2 0x103E JUMP JUMPDEST PUSH1 0x20 DUP3 ADD SWAP2 POP PUSH2 0x1080 DUP3 DUP5 PUSH2 0x103E JUMP JUMPDEST PUSH1 0x20 DUP3 ADD SWAP2 POP DUP2 SWAP1 POP SWAP5 SWAP4 POP POP POP POP JUMP JUMPDEST PUSH32 0x4E487B7100000000000000000000000000000000000000000000000000000000 PUSH0 MSTORE PUSH1 0x32 PUSH1 0x4 MSTORE PUSH1 0x24 PUSH0 REVERT JUMPDEST PUSH32 0x4E487B7100000000000000000000000000000000000000000000000000000000 PUSH0 MSTORE PUSH1 0x11 PUSH1 0x4 MSTORE PUSH1 0x24 PUSH0 REVERT JUMPDEST PUSH0 PUSH2 0x10F5 DUP3 PUSH2 0x89C JUMP JUMPDEST SWAP2 POP PUSH32 0xFFFFFFFFFFFFFFFFFFFFFFFFFFFFFFFFFFFFFFFFFFFFFFFFFFFFFFFFFFFFFFFF DUP3 SUB PUSH2 0x1127 JUMPI PUSH2 0x1126 PUSH2 0x10BE JUMP JUMPDEST JUMPDEST PUSH1 0x1 DUP3 ADD SWAP1 POP SWAP2 SWAP1 POP JUMP JUMPDEST PUSH32 0x48616E7961206269736120646920666173652053455455500000000000000000 PUSH0 DUP3 ADD MSTORE POP JUMP JUMPDEST PUSH0 PUSH2 0x1166 PUSH1 0x18 DUP4 PUSH2 0x93D JUMP JUMPDEST SWAP2 POP PUSH2 0x1171 DUP3 PUSH2 0x1132 JUMP JUMPDEST PUSH1 0x20 DUP3 ADD SWAP1 POP SWAP2 SWAP1 POP JUMP JUMPDEST PUSH0 PUSH1 0x20 DUP3 ADD SWAP1 POP DUP2 DUP2 SUB PUSH0 DUP4 ADD MSTORE PUSH2 0x1193 DUP2 PUSH2 0x115A JUMP JUMPDEST SWAP1 POP SWAP2 SWAP1 POP JUMP JUMPDEST PUSH0 DUP2 SWAP1 POP DUP2 PUSH0 MSTORE PUSH1 0x20 PUSH0 KECCAK256 SWAP1 POP SWAP2 SWAP1 POP JUMP JUMPDEST PUSH0 PUSH1 0x20 PUSH1 0x1F DUP4 ADD DIV SWAP1 POP SWAP2 SWAP1 POP JUMP JUMPDEST PUSH0 DUP3 DUP3 SHL SWAP1 POP SWAP3 SWAP2 POP POP JUMP JUMPDEST PUSH0 PUSH1 0x8 DUP4 MUL PUSH2 0x11F6 PUSH32 0xFFFFFFFFFFFFFFFFFFFFFFFFFFFFFFFFFFFFFFFFFFFFFFFFFFFFFFFFFFFFFFFF DUP3 PUSH2 0x11BB JUMP JUMPDEST PUSH2 0x1200 DUP7 DUP4 PUSH2 0x11BB JUMP JUMPDEST SWAP6 POP DUP1 NOT DUP5 AND SWAP4 POP DUP1 DUP7 AND DUP5 OR SWAP3 POP POP POP SWAP4 SWAP3 POP POP POP JUMP JUMPDEST PUSH0 DUP2 SWAP1 POP SWAP2 SWAP1 POP JUMP JUMPDEST PUSH0 PUSH2 0x123B PUSH2 0x1236 PUSH2 0x1231 DUP5 PUSH2 0x89C JUMP JUMPDEST PUSH2 0x1218 JUMP JUMPDEST PUSH2 0x89C JUMP JUMPDEST SWAP1 POP SWAP2 SWAP1 POP JUMP JUMPDEST PUSH0 DUP2 SWAP1 POP SWAP2 SWAP1 POP JUMP JUMPDEST PUSH2 0x1254 DUP4 PUSH2 0x1221 JUMP JUMPDEST PUSH2 0x1268 PUSH2 0x1260 DUP3 PUSH2 0x1242 JUMP JUMPDEST DUP5 DUP5 SLOAD PUSH2 0x11C7 JUMP JUMPDEST DUP3 SSTORE POP POP POP POP JUMP JUMPDEST PUSH0 PUSH0 SWAP1 POP SWAP1 JUMP JUMPDEST PUSH2 0x127F PUSH2 0x1270 JUMP JUMPDEST PUSH2 0x128A DUP2 DUP5 DUP5 PUSH2 0x124B JUMP JUMPDEST POP POP POP JUMP JUMPDEST JUMPDEST DUP2 DUP2 LT ISZERO PUSH2 0x12AD JUMPI PUSH2 0x12A2 PUSH0 DUP3 PUSH2 0x1277 JUMP JUMPDEST PUSH1 0x1 DUP2 ADD SWAP1 POP PUSH2 0x1290 JUMP JUMPDEST POP POP JUMP JUMPDEST PUSH1 0x1F DUP3 GT ISZERO PUSH2 0x12F2 JUMPI PUSH2 0x12C3 DUP2 PUSH2 0x119A JUMP JUMPDEST PUSH2 0x12CC DUP5 PUSH2 0x11AC JUMP JUMPDEST DUP2 ADD PUSH1 0x20 DUP6 LT ISZERO PUSH2 0x12DB JUMPI DUP2 SWAP1 POP JUMPDEST PUSH2 0x12EF PUSH2 0x12E7 DUP6 PUSH2 0x11AC JUMP JUMPDEST DUP4 ADD DUP3 PUSH2 0x128F JUMP JUMPDEST POP POP JUMPDEST POP POP POP JUMP JUMPDEST PUSH0 DUP3 DUP3 SHR SWAP1 POP SWAP3 SWAP2 POP POP JUMP JUMPDEST PUSH0 PUSH2 0x1312 PUSH0 NOT DUP5 PUSH1 0x8 MUL PUSH2 0x12F7 JUMP JUMPDEST NOT DUP1 DUP4 AND SWAP2 POP POP SWAP3 SWAP2 POP POP JUMP JUMPDEST PUSH0 PUSH2 0x132A DUP4 DUP4 PUSH2 0x1303 JUMP JUMPDEST SWAP2 POP DUP3 PUSH1 0x2 MUL DUP3 OR SWAP1 POP SWAP3 SWAP2 POP POP JUMP JUMPDEST PUSH2 0x1343 DUP3 PUSH2 0x933 JUMP JUMPDEST PUSH8 0xFFFFFFFFFFFFFFFF DUP2 GT ISZERO PUSH2 0x135C JUMPI PUSH2 0x135B PUSH2 0xBE3 JUMP JUMPDEST JUMPDEST PUSH2 0x1366 DUP3 SLOAD PUSH2 0xDB8 JUMP JUMPDEST PUSH2 0x1371 DUP3 DUP3 DUP6 PUSH2 0x12B1 JUMP JUMPDEST PUSH0 PUSH1 0x20 SWAP1 POP PUSH1 0x1F DUP4 GT PUSH1 0x1 DUP2 EQ PUSH2 0x13A2 JUMPI PUSH0 DUP5 ISZERO PUSH2 0x1390 JUMPI DUP3 DUP8 ADD MLOAD SWAP1 POP JUMPDEST PUSH2 0x139A DUP6 DUP3 PUSH2 0x131F JUMP JUMPDEST DUP7 SSTORE POP PUSH2 0x1401 JUMP JUMPDEST PUSH1 0x1F NOT DUP5 AND PUSH2 0x13B0 DUP7 PUSH2 0x119A JUMP JUMPDEST PUSH0 JUMPDEST DUP3 DUP2 LT ISZERO PUSH2 0x13D7 JUMPI DUP5 DUP10 ADD MLOAD DUP3 SSTORE PUSH1 0x1 DUP3 ADD SWAP2 POP PUSH1 0x20 DUP6 ADD SWAP5 POP PUSH1 0x20 DUP2 ADD SWAP1 POP PUSH2 0x13B2 JUMP JUMPDEST DUP7 DUP4 LT ISZERO PUSH2 0x13F4 JUMPI DUP5 DUP10 ADD MLOAD PUSH2 0x13F0 PUSH1 0x1F DUP10 AND DUP3 PUSH2 0x1303 JUMP JUMPDEST DUP4 SSTORE POP JUMPDEST PUSH1 0x1 PUSH1 0x2 DUP9 MUL ADD DUP9 SSTORE POP POP POP JUMPDEST POP POP POP POP POP POP JUMP INVALID LOG2 PUSH5 0x6970667358 0x22 SLT KECCAK256 0xEF 0xB1 PUSH16 0xD2E904ECA04F82E449340E2D1774E538 PUSH0 RJUMPI 0x326 0x4D 0xCD 0xA7 SIGNEXTEND SWAP2 CALLDATALOAD 0xD8 SDIV 0xB0 PUSH5 0x736F6C6343 STOP ADDMOD 0x1F STOP CALLER "
				},
				"gasEstimates": {
					"creation": {
						"codeDepositCost": "1036600",
						"executionCost": "49683",
						"totalCost": "1086283"
					},
					"external": {
						"daftarKandidat(uint256)": "infinite",
						"dataPemilih(address)": "infinite",
						"faseSaatIni()": "2604",
						"gantiFase(uint8)": "26908",
						"getJumlahKandidat()": "2484",
						"panitia()": "2573",
						"pilihKandidat(uint256)": "infinite",
						"tambahKandidat(string,bytes32)": "infinite",
						"totalSuara()": "2426",
						"verifikasiPemilih(address)": "26998"
					}
				},
				"methodIdentifiers": {
					"daftarKandidat(uint256)": "13d7966c",
					"dataPemilih(address)": "4cd02954",
					"faseSaatIni()": "53ffdd28",
					"gantiFase(uint8)": "393d7119",
					"getJumlahKandidat()": "7a84a562",
					"panitia()": "7e36d296",
					"pilihKandidat(uint256)": "406a4324",
					"tambahKandidat(string,bytes32)": "88871746",
					"totalSuara()": "0fd569e8",
					"verifikasiPemilih(address)": "68a25911"
				}
			},
			"storageLayout": {
				"storage": [
					{
						"astId": 3,
						"contract": "contracts/CoblosIn.sol:CoblosIn",
						"label": "panitia",
						"offset": 0,
						"slot": "0",
						"type": "t_address"
					},
					{
						"astId": 11,
						"contract": "contracts/CoblosIn.sol:CoblosIn",
						"label": "faseSaatIni",
						"offset": 20,
						"slot": "0",
						"type": "t_enum(FasePemilihan)8"
					},
					{
						"astId": 31,
						"contract": "contracts/CoblosIn.sol:CoblosIn",
						"label": "daftarKandidat",
						"offset": 0,
						"slot": "1",
						"type": "t_array(t_struct(Kandidat)20_storage)dyn_storage"
					},
					{
						"astId": 36,
						"contract": "contracts/CoblosIn.sol:CoblosIn",
						"label": "dataPemilih",
						"offset": 0,
						"slot": "2",
						"type": "t_mapping(t_address,t_struct(Pemilih)27_storage)"
					},
					{
						"astId": 38,
						"contract": "contracts/CoblosIn.sol:CoblosIn",
						"label": "totalSuara",
						"offset": 0,
						"slot": "3",
						"type": "t_uint256"
					}
				],
				"types": {
					"t_address": {
						"encoding": "inplace",
						"label": "address",
						"numberOfBytes": "20"
					},
					"t_array(t_struct(Kandidat)20_storage)dyn_storage": {
						"base": "t_struct(Kandidat)20_storage",
						"encoding": "dynamic_array",
						"label": "struct CoblosIn.Kandidat[]",
						"numberOfBytes": "32"
					},
					"t_bool": {
						"encoding": "inplace",
						"label": "bool",
						"numberOfBytes": "1"
					},
					"t_bytes32": {
						"encoding": "inplace",
						"label": "bytes32",
						"numberOfBytes": "32"
					},
					"t_enum(FasePemilihan)8": {
						"encoding": "inplace",
						"label": "enum CoblosIn.FasePemilihan",
						"numberOfBytes": "1"
					},
					"t_mapping(t_address,t_struct(Pemilih)27_storage)": {
						"encoding": "mapping",
						"key": "t_address",
						"label": "mapping(address => struct CoblosIn.Pemilih)",
						"numberOfBytes": "32",
						"value": "t_struct(Pemilih)27_storage"
					},
					"t_string_storage": {
						"encoding": "bytes",
						"label": "string",
						"numberOfBytes": "32"
					},
					"t_struct(Kandidat)20_storage": {
						"encoding": "inplace",
						"label": "struct CoblosIn.Kandidat",
						"members": [
							{
								"astId": 13,
								"contract": "contracts/CoblosIn.sol:CoblosIn",
								"label": "id",
								"offset": 0,
								"slot": "0",
								"type": "t_uint256"
							},
							{
								"astId": 15,
								"contract": "contracts/CoblosIn.sol:CoblosIn",
								"label": "nama",
								"offset": 0,
								"slot": "1",
								"type": "t_string_storage"
							},
							{
								"astId": 17,
								"contract": "contracts/CoblosIn.sol:CoblosIn",
								"label": "hashProfil",
								"offset": 0,
								"slot": "2",
								"type": "t_bytes32"
							},
							{
								"astId": 19,
								"contract": "contracts/CoblosIn.sol:CoblosIn",
								"label": "jumlahSuara",
								"offset": 0,
								"slot": "3",
								"type": "t_uint256"
							}
						],
						"numberOfBytes": "128"
					},
					"t_struct(Pemilih)27_storage": {
						"encoding": "inplace",
						"label": "struct CoblosIn.Pemilih",
						"members": [
							{
								"astId": 22,
								"contract": "contracts/CoblosIn.sol:CoblosIn",
								"label": "isTerverifikasi",
								"offset": 0,
								"slot": "0",
								"type": "t_bool"
							},
							{
								"astId": 24,
								"contract": "contracts/CoblosIn.sol:CoblosIn",
								"label": "sudahMemilih",
								"offset": 1,
								"slot": "0",
								"type": "t_bool"
							},
							{
								"astId": 26,
								"contract": "contracts/CoblosIn.sol:CoblosIn",
								"label": "voteReceipt",
								"offset": 0,
								"slot": "1",
								"type": "t_bytes32"
							}
						],
						"numberOfBytes": "64"
					},
					"t_uint256": {
						"encoding": "inplace",
						"label": "uint256",
						"numberOfBytes": "32"
					}
				}
			},
			"userdoc": {
				"kind": "user",
				"methods": {},
				"version": 1
			}
		}
	}
}